{
  "address": "0xe7f1725E7734CE288F8367e1Bb143E90bb3F0512",
  "abi": [
    {
      "inputs": [
        {
          "internalType": "address",
          "name": "_endpoint",
          "type": "address"
        }
      ],
      "stateMutability": "nonpayable",
      "type": "constructor"
    },
    {
      "inputs": [],
      "name": "AmountIsZero",
      "type": "error"
    },
    {
      "inputs": [],
      "name": "ContractCantBeUser",
      "type": "error"
    },
    {
      "inputs": [],
      "name": "DepositAmountTooLow",
      "type": "error"
    },
    {
      "inputs": [],
      "name": "EndTimeNotCompatible",
      "type": "error"
    },
    {
      "inputs": [],
      "name": "NoTokensLeft",
      "type": "error"
    },
    {
      "inputs": [],
      "name": "NotYourStream",
      "type": "error"
    },
    {
      "inputs": [],
      "name": "RateCantBeZero",
      "type": "error"
    },
    {
      "inputs": [],
      "name": "RedeemableBalanceIsLowerThenAmount",
      "type": "error"
    },
    {
      "inputs": [],
      "name": "StartTimePassed",
      "type": "error"
    },
    {
      "inputs": [],
      "name": "StreamDoesntExist",
      "type": "error"
    },
    {
      "anonymous": false,
      "inputs": [
        {
          "indexed": false,
          "internalType": "uint16",
          "name": "_srcChainId",
          "type": "uint16"
        },
        {
          "indexed": false,
          "internalType": "bytes",
          "name": "_srcAddress",
          "type": "bytes"
        },
        {
          "indexed": false,
          "internalType": "uint64",
          "name": "_nonce",
          "type": "uint64"
        },
        {
          "indexed": false,
          "internalType": "bytes",
          "name": "_payload",
          "type": "bytes"
        },
        {
          "indexed": false,
          "internalType": "bytes",
          "name": "_reason",
          "type": "bytes"
        }
      ],
      "name": "MessageFailed",
      "type": "event"
    },
    {
      "anonymous": false,
      "inputs": [
        {
          "indexed": false,
          "internalType": "uint256",
          "name": "streamId",
          "type": "uint256"
        }
      ],
      "name": "MessageRecieved",
      "type": "event"
    },
    {
      "anonymous": false,
      "inputs": [
        {
          "indexed": true,
          "internalType": "address",
          "name": "previousOwner",
          "type": "address"
        },
        {
          "indexed": true,
          "internalType": "address",
          "name": "newOwner",
          "type": "address"
        }
      ],
      "name": "OwnershipTransferred",
      "type": "event"
    },
    {
      "anonymous": false,
      "inputs": [
        {
          "indexed": false,
          "internalType": "uint16",
          "name": "_srcChainId",
          "type": "uint16"
        },
        {
          "indexed": false,
          "internalType": "bytes",
          "name": "_srcAddress",
          "type": "bytes"
        },
        {
          "indexed": false,
          "internalType": "uint64",
          "name": "_nonce",
          "type": "uint64"
        },
        {
          "indexed": false,
          "internalType": "bytes32",
          "name": "_payloadHash",
          "type": "bytes32"
        }
      ],
      "name": "RetryMessageSuccess",
      "type": "event"
    },
    {
      "anonymous": false,
      "inputs": [
        {
          "indexed": false,
          "internalType": "uint16",
          "name": "chainId",
          "type": "uint16"
        }
      ],
      "name": "SentMessage",
      "type": "event"
    },
    {
      "anonymous": false,
      "inputs": [
        {
          "indexed": false,
          "internalType": "uint16",
          "name": "_dstChainId",
          "type": "uint16"
        },
        {
          "indexed": false,
          "internalType": "uint16",
          "name": "_type",
          "type": "uint16"
        },
        {
          "indexed": false,
          "internalType": "uint256",
          "name": "_minDstGas",
          "type": "uint256"
        }
      ],
      "name": "SetMinDstGas",
      "type": "event"
    },
    {
      "anonymous": false,
      "inputs": [
        {
          "indexed": false,
          "internalType": "address",
          "name": "precrime",
          "type": "address"
        }
      ],
      "name": "SetPrecrime",
      "type": "event"
    },
    {
      "anonymous": false,
      "inputs": [
        {
          "indexed": false,
          "internalType": "uint16",
          "name": "_remoteChainId",
          "type": "uint16"
        },
        {
          "indexed": false,
          "internalType": "bytes",
          "name": "_path",
          "type": "bytes"
        }
      ],
      "name": "SetTrustedRemote",
      "type": "event"
    },
    {
      "anonymous": false,
      "inputs": [
        {
          "indexed": false,
          "internalType": "uint16",
          "name": "_remoteChainId",
          "type": "uint16"
        },
        {
          "indexed": false,
          "internalType": "bytes",
          "name": "_remoteAddress",
          "type": "bytes"
        }
      ],
      "name": "SetTrustedRemoteAddress",
      "type": "event"
    },
    {
      "anonymous": false,
      "inputs": [
        {
          "indexed": false,
          "internalType": "uint256",
          "name": "streamId",
          "type": "uint256"
        }
      ],
      "name": "StreamCreated",
      "type": "event"
    },
    {
      "anonymous": false,
      "inputs": [
        {
          "indexed": false,
          "internalType": "uint256",
          "name": "streamId",
          "type": "uint256"
        },
        {
          "indexed": false,
          "internalType": "address",
          "name": "user",
          "type": "address"
        },
        {
          "indexed": false,
          "internalType": "uint256",
          "name": "amount",
          "type": "uint256"
        }
      ],
      "name": "WithdrawFromStream",
      "type": "event"
    },
    {
      "inputs": [
        {
          "internalType": "address",
          "name": "tokenAddress",
          "type": "address"
        },
        {
          "internalType": "address",
          "name": "user",
          "type": "address"
        },
        {
          "internalType": "uint256",
          "name": "startTime",
          "type": "uint256"
        },
        {
          "internalType": "uint256",
          "name": "endTime",
          "type": "uint256"
        },
        {
          "internalType": "uint256",
          "name": "depositAmount",
          "type": "uint256"
        }
      ],
      "name": "createStream",
      "outputs": [],
      "stateMutability": "nonpayable",
      "type": "function"
    },
    {
      "inputs": [
        {
          "internalType": "uint16",
          "name": "",
          "type": "uint16"
        },
        {
          "internalType": "bytes",
          "name": "",
          "type": "bytes"
        },
        {
          "internalType": "uint64",
          "name": "",
          "type": "uint64"
        }
      ],
      "name": "failedMessages",
      "outputs": [
        {
          "internalType": "bytes32",
          "name": "",
          "type": "bytes32"
        }
      ],
      "stateMutability": "view",
      "type": "function"
    },
    {
      "inputs": [
        {
          "internalType": "uint16",
          "name": "_srcChainId",
          "type": "uint16"
        },
        {
          "internalType": "bytes",
          "name": "_srcAddress",
          "type": "bytes"
        }
      ],
      "name": "forceResumeReceive",
      "outputs": [],
      "stateMutability": "nonpayable",
      "type": "function"
    },
    {
      "inputs": [
        {
          "internalType": "uint16",
          "name": "_version",
          "type": "uint16"
        },
        {
          "internalType": "uint16",
          "name": "_chainId",
          "type": "uint16"
        },
        {
          "internalType": "address",
          "name": "",
          "type": "address"
        },
        {
          "internalType": "uint256",
          "name": "_configType",
          "type": "uint256"
        }
      ],
      "name": "getConfig",
      "outputs": [
        {
          "internalType": "bytes",
          "name": "",
          "type": "bytes"
        }
      ],
      "stateMutability": "view",
      "type": "function"
    },
    {
      "inputs": [
        {
          "internalType": "uint16",
          "name": "_remoteChainId",
          "type": "uint16"
        }
      ],
      "name": "getTrustedRemoteAddress",
      "outputs": [
        {
          "internalType": "bytes",
          "name": "",
          "type": "bytes"
        }
      ],
      "stateMutability": "view",
      "type": "function"
    },
    {
      "inputs": [
        {
          "internalType": "uint16",
          "name": "_srcChainId",
          "type": "uint16"
        },
        {
          "internalType": "bytes",
          "name": "_srcAddress",
          "type": "bytes"
        }
      ],
      "name": "isTrustedRemote",
      "outputs": [
        {
          "internalType": "bool",
          "name": "",
          "type": "bool"
        }
      ],
      "stateMutability": "view",
      "type": "function"
    },
    {
      "inputs": [],
      "name": "lzEndpoint",
      "outputs": [
        {
          "internalType": "contract ILayerZeroEndpoint",
          "name": "",
          "type": "address"
        }
      ],
      "stateMutability": "view",
      "type": "function"
    },
    {
      "inputs": [
        {
          "internalType": "uint16",
          "name": "_srcChainId",
          "type": "uint16"
        },
        {
          "internalType": "bytes",
          "name": "_srcAddress",
          "type": "bytes"
        },
        {
          "internalType": "uint64",
          "name": "_nonce",
          "type": "uint64"
        },
        {
          "internalType": "bytes",
          "name": "_payload",
          "type": "bytes"
        }
      ],
      "name": "lzReceive",
      "outputs": [],
      "stateMutability": "nonpayable",
      "type": "function"
    },
    {
      "inputs": [
        {
          "internalType": "uint16",
          "name": "",
          "type": "uint16"
        },
        {
          "internalType": "uint16",
          "name": "",
          "type": "uint16"
        }
      ],
      "name": "minDstGasLookup",
      "outputs": [
        {
          "internalType": "uint256",
          "name": "",
          "type": "uint256"
        }
      ],
      "stateMutability": "view",
      "type": "function"
    },
    {
      "inputs": [
        {
          "internalType": "uint16",
          "name": "_srcChainId",
          "type": "uint16"
        },
        {
          "internalType": "bytes",
          "name": "_srcAddress",
          "type": "bytes"
        },
        {
          "internalType": "uint64",
          "name": "_nonce",
          "type": "uint64"
        },
        {
          "internalType": "bytes",
          "name": "_payload",
          "type": "bytes"
        }
      ],
      "name": "nonblockingLzReceive",
      "outputs": [],
      "stateMutability": "nonpayable",
      "type": "function"
    },
    {
      "inputs": [],
      "name": "owner",
      "outputs": [
        {
          "internalType": "address",
          "name": "",
          "type": "address"
        }
      ],
      "stateMutability": "view",
      "type": "function"
    },
    {
      "inputs": [],
      "name": "precrime",
      "outputs": [
        {
          "internalType": "address",
          "name": "",
          "type": "address"
        }
      ],
      "stateMutability": "view",
      "type": "function"
    },
    {
      "inputs": [
        {
          "internalType": "uint256",
          "name": "streamId",
          "type": "uint256"
        }
      ],
      "name": "redeemableBalance",
      "outputs": [
        {
          "internalType": "uint256",
          "name": "",
          "type": "uint256"
        }
      ],
      "stateMutability": "view",
      "type": "function"
    },
    {
      "inputs": [],
      "name": "renounceOwnership",
      "outputs": [],
      "stateMutability": "nonpayable",
      "type": "function"
    },
    {
      "inputs": [
        {
          "internalType": "uint16",
          "name": "_srcChainId",
          "type": "uint16"
        },
        {
          "internalType": "bytes",
          "name": "_srcAddress",
          "type": "bytes"
        },
        {
          "internalType": "uint64",
          "name": "_nonce",
          "type": "uint64"
        },
        {
          "internalType": "bytes",
          "name": "_payload",
          "type": "bytes"
        }
      ],
      "name": "retryMessage",
      "outputs": [],
      "stateMutability": "payable",
      "type": "function"
    },
    {
      "inputs": [
        {
          "internalType": "uint16",
          "name": "_dstChainId",
          "type": "uint16"
        },
        {
          "internalType": "address",
          "name": "",
          "type": "address"
        },
        {
          "internalType": "uint256",
          "name": "streamId",
          "type": "uint256"
        }
      ],
      "name": "sendMessage",
      "outputs": [],
      "stateMutability": "payable",
      "type": "function"
    },
    {
      "inputs": [
        {
          "internalType": "uint16",
          "name": "_version",
          "type": "uint16"
        },
        {
          "internalType": "uint16",
          "name": "_chainId",
          "type": "uint16"
        },
        {
          "internalType": "uint256",
          "name": "_configType",
          "type": "uint256"
        },
        {
          "internalType": "bytes",
          "name": "_config",
          "type": "bytes"
        }
      ],
      "name": "setConfig",
      "outputs": [],
      "stateMutability": "nonpayable",
      "type": "function"
    },
    {
      "inputs": [
        {
          "internalType": "uint16",
          "name": "_dstChainId",
          "type": "uint16"
        },
        {
          "internalType": "uint16",
          "name": "_packetType",
          "type": "uint16"
        },
        {
          "internalType": "uint256",
          "name": "_minGas",
          "type": "uint256"
        }
      ],
      "name": "setMinDstGas",
      "outputs": [],
      "stateMutability": "nonpayable",
      "type": "function"
    },
    {
      "inputs": [
        {
          "internalType": "address",
          "name": "_precrime",
          "type": "address"
        }
      ],
      "name": "setPrecrime",
      "outputs": [],
      "stateMutability": "nonpayable",
      "type": "function"
    },
    {
      "inputs": [
        {
          "internalType": "uint16",
          "name": "_version",
          "type": "uint16"
        }
      ],
      "name": "setReceiveVersion",
      "outputs": [],
      "stateMutability": "nonpayable",
      "type": "function"
    },
    {
      "inputs": [
        {
          "internalType": "uint16",
          "name": "_version",
          "type": "uint16"
        }
      ],
      "name": "setSendVersion",
      "outputs": [],
      "stateMutability": "nonpayable",
      "type": "function"
    },
    {
      "inputs": [
        {
          "internalType": "uint16",
          "name": "_srcChainId",
          "type": "uint16"
        },
        {
          "internalType": "bytes",
          "name": "_path",
          "type": "bytes"
        }
      ],
      "name": "setTrustedRemote",
      "outputs": [],
      "stateMutability": "nonpayable",
      "type": "function"
    },
    {
      "inputs": [
        {
          "internalType": "uint16",
          "name": "_remoteChainId",
          "type": "uint16"
        },
        {
          "internalType": "bytes",
          "name": "_remoteAddress",
          "type": "bytes"
        }
      ],
      "name": "setTrustedRemoteAddress",
      "outputs": [],
      "stateMutability": "nonpayable",
      "type": "function"
    },
    {
      "inputs": [
        {
          "internalType": "uint256",
          "name": "streamId",
          "type": "uint256"
        }
      ],
      "name": "timePassed",
      "outputs": [
        {
          "internalType": "uint256",
          "name": "",
          "type": "uint256"
        }
      ],
      "stateMutability": "view",
      "type": "function"
    },
    {
      "inputs": [
        {
          "internalType": "address",
          "name": "newOwner",
          "type": "address"
        }
      ],
      "name": "transferOwnership",
      "outputs": [],
      "stateMutability": "nonpayable",
      "type": "function"
    },
    {
      "inputs": [
        {
          "internalType": "uint16",
          "name": "",
          "type": "uint16"
        }
      ],
      "name": "trustedRemoteLookup",
      "outputs": [
        {
          "internalType": "bytes",
          "name": "",
          "type": "bytes"
        }
      ],
      "stateMutability": "view",
      "type": "function"
    },
    {
      "inputs": [],
      "name": "viewNextStreamId",
      "outputs": [
        {
          "internalType": "uint256",
          "name": "",
          "type": "uint256"
        }
      ],
      "stateMutability": "view",
      "type": "function"
    },
    {
      "inputs": [
        {
          "internalType": "uint256",
          "name": "streamId",
          "type": "uint256"
        }
      ],
      "name": "viewStream",
      "outputs": [
        {
          "internalType": "address",
          "name": "user",
          "type": "address"
        },
        {
          "internalType": "address",
          "name": "sender",
          "type": "address"
        },
        {
          "internalType": "uint256",
          "name": "depositAmount",
          "type": "uint256"
        },
        {
          "internalType": "uint256",
          "name": "startTime",
          "type": "uint256"
        },
        {
          "internalType": "uint256",
          "name": "endTime",
          "type": "uint256"
        },
        {
          "internalType": "address",
          "name": "tokenAddress",
          "type": "address"
        },
        {
          "internalType": "uint256",
          "name": "ratesPerSecond",
          "type": "uint256"
        },
        {
          "internalType": "uint256",
          "name": "balance",
          "type": "uint256"
        },
        {
          "internalType": "bool",
          "name": "active",
          "type": "bool"
        }
      ],
      "stateMutability": "view",
      "type": "function"
    },
    {
      "inputs": [
        {
          "internalType": "uint256",
          "name": "streamId",
          "type": "uint256"
        },
        {
          "internalType": "uint256",
          "name": "amount",
          "type": "uint256"
        }
      ],
      "name": "withdrawFromStream",
      "outputs": [],
      "stateMutability": "nonpayable",
      "type": "function"
    }
  ],
  "transactionHash": "0x12d8903bf25351bfe15576a24eed2dd9e7020bc776eebff08dae5b14aade6d41",
  "args": [
    "0x5FbDB2315678afecb367f032d93F642f64180aa3"
  ],
  "numDeployments": 1,
  "solcInputHash": "5b5e1b0c0bf21c9d3f5845ce69a4fee3",
  "bytecode": "0x60a060405260016005553480156200001657600080fd5b506040516200490c3803806200490c83398181016040528101906200003c9190620001d1565b80806200005e620000526200009b60201b60201c565b620000a360201b60201c565b8073ffffffffffffffffffffffffffffffffffffffff1660808173ffffffffffffffffffffffffffffffffffffffff168152505050505062000203565b600033905090565b60008060009054906101000a900473ffffffffffffffffffffffffffffffffffffffff169050816000806101000a81548173ffffffffffffffffffffffffffffffffffffffff021916908373ffffffffffffffffffffffffffffffffffffffff1602179055508173ffffffffffffffffffffffffffffffffffffffff168173ffffffffffffffffffffffffffffffffffffffff167f8be0079c531659141344cd1fd0a4f28419497f9722a3daafe3b4186f6b6457e060405160405180910390a35050565b600080fd5b600073ffffffffffffffffffffffffffffffffffffffff82169050919050565b600062000199826200016c565b9050919050565b620001ab816200018c565b8114620001b757600080fd5b50565b600081519050620001cb81620001a0565b92915050565b600060208284031215620001ea57620001e962000167565b5b6000620001fa84828501620001ba565b91505092915050565b6080516146bc620002506000396000818161070501528181610d8d01528181610e2301528181610f9701528181611ae401528181611b93015281816124470152612a0501526146bc6000f3fe6080604052600436106101c15760003560e01c80639072d416116100f7578063cfed919911610095578063eb8d72b711610064578063eb8d72b714610637578063ecda286514610660578063f2fde38b1461069d578063f5ecbdbc146106c6576101c1565b8063cfed919914610599578063d1deba1f146105d6578063df2a5b3b146105f2578063e2939c761461061b576101c1565b8063a6c3d165116100d1578063a6c3d165146104f3578063b353aaa71461051c578063baf3292d14610547578063cbed8b9c14610570576101c1565b80639072d41614610446578063950c8a741461048b5780639f38369a146104b6576101c1565b80635b8c41e6116101645780637533d7881161013e5780637533d788146103785780637a9b2c6c146103b55780638cfd8f5c146103de5780638da5cb5b1461041b576101c1565b80635b8c41e6146102fb57806366ad5c8a14610338578063715018a614610361576101c1565b806310ddb137116101a057806310ddb137146102415780633495f8381461026a5780633d8b38f61461029557806342d65a8d146102d2576101c1565b80621d3567146101c657806306eb2dd3146101ef57806307e0db1714610218575b600080fd5b3480156101d257600080fd5b506101ed60048036038101906101e89190612c2d565b610703565b005b3480156101fb57600080fd5b5061021660048036038101906102119190612d68565b610959565b005b34801561022457600080fd5b5061023f600480360381019061023a9190612de3565b610d83565b005b34801561024d57600080fd5b5061026860048036038101906102639190612de3565b610e19565b005b34801561027657600080fd5b5061027f610eaf565b60405161028c9190612e1f565b60405180910390f35b3480156102a157600080fd5b506102bc60048036038101906102b79190612e3a565b610eb9565b6040516102c99190612eb5565b60405180910390f35b3480156102de57600080fd5b506102f960048036038101906102f49190612e3a565b610f8d565b005b34801561030757600080fd5b50610322600480360381019061031d9190613011565b611029565b60405161032f9190613099565b60405180910390f35b34801561034457600080fd5b5061035f600480360381019061035a9190612c2d565b611071565b005b34801561036d57600080fd5b50610376611182565b005b34801561038457600080fd5b5061039f600480360381019061039a9190612de3565b611196565b6040516103ac9190613133565b60405180910390f35b3480156103c157600080fd5b506103dc60048036038101906103d79190613155565b611236565b005b3480156103ea57600080fd5b5061040560048036038101906104009190613195565b6116fc565b6040516104129190612e1f565b60405180910390f35b34801561042757600080fd5b50610430611721565b60405161043d91906131e4565b60405180910390f35b34801561045257600080fd5b5061046d600480360381019061046891906131ff565b61174a565b6040516104829998979695949392919061322c565b60405180910390f35b34801561049757600080fd5b506104a061190f565b6040516104ad91906131e4565b60405180910390f35b3480156104c257600080fd5b506104dd60048036038101906104d89190612de3565b611935565b6040516104ea9190613133565b60405180910390f35b3480156104ff57600080fd5b5061051a60048036038101906105159190612e3a565b611a4e565b005b34801561052857600080fd5b50610531611ae2565b60405161053e9190613318565b60405180910390f35b34801561055357600080fd5b5061056e60048036038101906105699190613333565b611b06565b005b34801561057c57600080fd5b5061059760048036038101906105929190613360565b611b89565b005b3480156105a557600080fd5b506105c060048036038101906105bb91906131ff565b611c2b565b6040516105cd9190612e1f565b60405180910390f35b6105f060048036038101906105eb9190612c2d565b611dfe565b005b3480156105fe57600080fd5b50610619600480360381019061061491906133e8565b612041565b005b6106356004803603810190610630919061343b565b612105565b005b34801561064357600080fd5b5061065e60048036038101906106599190612e3a565b6121aa565b005b34801561066c57600080fd5b50610687600480360381019061068291906131ff565b61221d565b6040516106949190612e1f565b60405180910390f35b3480156106a957600080fd5b506106c460048036038101906106bf9190613333565b6123c0565b005b3480156106d257600080fd5b506106ed60048036038101906106e8919061348e565b612443565b6040516106fa9190613133565b60405180910390f35b7f000000000000000000000000000000000000000000000000000000000000000073ffffffffffffffffffffffffffffffffffffffff166107426124f4565b73ffffffffffffffffffffffffffffffffffffffff1614610798576040517f08c379a000000000000000000000000000000000000000000000000000000000815260040161078f90613552565b60405180910390fd5b6000600160008861ffff1661ffff16815260200190815260200160002080546107c0906135a1565b80601f01602080910402602001604051908101604052809291908181526020018280546107ec906135a1565b80156108395780601f1061080e57610100808354040283529160200191610839565b820191906000526020600020905b81548152906001019060200180831161081c57829003601f168201915b50505050509050805186869050148015610854575060008151115b801561087d575080805190602001208686604051610873929190613602565b6040518091039020145b6108bc576040517f08c379a00000000000000000000000000000000000000000000000000000000081526004016108b39061368d565b60405180910390fd5b6109508787878080601f016020809104026020016040519081016040528093929190818152602001838380828437600081840152601f19601f820116905080830192505050505050508686868080601f016020809104026020016040519081016040528093929190818152602001838380828437600081840152601f19601f820116905080830192505050505050506124fc565b50505050505050565b82421015610993576040517f5696032300000000000000000000000000000000000000000000000000000000815260040160405180910390fd5b600081116109cd576040517f55fcd02700000000000000000000000000000000000000000000000000000000815260040160405180910390fd5b3073ffffffffffffffffffffffffffffffffffffffff168473ffffffffffffffffffffffffffffffffffffffff1603610a32576040517f690c666f00000000000000000000000000000000000000000000000000000000815260040160405180910390fd5b600060055490506001600554610a4891906136dc565b60058190555060008484610a5c9190613710565b905082811115610a98576040517fb717128900000000000000000000000000000000000000000000000000000000815260040160405180910390fd5b60008184610aa69190613773565b14610add576040517f2510db1000000000000000000000000000000000000000000000000000000000815260040160405180910390fd5b60008184610aeb91906137a4565b90506040518061014001604052808481526020018873ffffffffffffffffffffffffffffffffffffffff1681526020013373ffffffffffffffffffffffffffffffffffffffff1681526020018581526020018781526020018681526020018973ffffffffffffffffffffffffffffffffffffffff16815260200182815260200185815260200160011515815250600660008581526020019081526020016000206000820151816000015560208201518160010160006101000a81548173ffffffffffffffffffffffffffffffffffffffff021916908373ffffffffffffffffffffffffffffffffffffffff16021790555060408201518160020160006101000a81548173ffffffffffffffffffffffffffffffffffffffff021916908373ffffffffffffffffffffffffffffffffffffffff160217905550606082015181600301556080820151816004015560a0820151816005015560c08201518160060160006101000a81548173ffffffffffffffffffffffffffffffffffffffff021916908373ffffffffffffffffffffffffffffffffffffffff16021790555060e0820151816007015561010082015181600801556101208201518160090160006101000a81548160ff0219169083151502179055509050507f3056c83b2054f047a75323e4d65d14a30d96f2cecc797f0b03f3eeb786db876183604051610cf09190612e1f565b60405180910390a18773ffffffffffffffffffffffffffffffffffffffff166323b872dd3330876040518463ffffffff1660e01b8152600401610d35939291906137d5565b6020604051808303816000875af1158015610d54573d6000803e3d6000fd5b505050506040513d601f19601f82011682018060405250810190610d789190613838565b505050505050505050565b610d8b612661565b7f000000000000000000000000000000000000000000000000000000000000000073ffffffffffffffffffffffffffffffffffffffff166307e0db17826040518263ffffffff1660e01b8152600401610de49190613874565b600060405180830381600087803b158015610dfe57600080fd5b505af1158015610e12573d6000803e3d6000fd5b5050505050565b610e21612661565b7f000000000000000000000000000000000000000000000000000000000000000073ffffffffffffffffffffffffffffffffffffffff166310ddb137826040518263ffffffff1660e01b8152600401610e7a9190613874565b600060405180830381600087803b158015610e9457600080fd5b505af1158015610ea8573d6000803e3d6000fd5b5050505050565b6000600554905090565b600080600160008661ffff1661ffff1681526020019081526020016000208054610ee2906135a1565b80601f0160208091040260200160405190810160405280929190818152602001828054610f0e906135a1565b8015610f5b5780601f10610f3057610100808354040283529160200191610f5b565b820191906000526020600020905b815481529060010190602001808311610f3e57829003601f168201915b505050505090508383604051610f72929190613602565b60405180910390208180519060200120149150509392505050565b610f95612661565b7f000000000000000000000000000000000000000000000000000000000000000073ffffffffffffffffffffffffffffffffffffffff166342d65a8d8484846040518463ffffffff1660e01b8152600401610ff2939291906138bc565b600060405180830381600087803b15801561100c57600080fd5b505af1158015611020573d6000803e3d6000fd5b50505050505050565b60046020528260005260406000208280516020810182018051848252602083016020850120818352809550505050505060205280600052604060002060009250925050505481565b3073ffffffffffffffffffffffffffffffffffffffff166110906124f4565b73ffffffffffffffffffffffffffffffffffffffff16146110e6576040517f08c379a00000000000000000000000000000000000000000000000000000000081526004016110dd90613960565b60405180910390fd5b61117a8686868080601f016020809104026020016040519081016040528093929190818152602001838380828437600081840152601f19601f820116905080830192505050505050508585858080601f016020809104026020016040519081016040528093929190818152602001838380828437600081840152601f19601f820116905080830192505050505050506126df565b505050505050565b61118a612661565b6111946000612735565b565b600160205280600052604060002060009150905080546111b5906135a1565b80601f01602080910402602001604051908101604052809291908181526020018280546111e1906135a1565b801561122e5780601f106112035761010080835404028352916020019161122e565b820191906000526020600020905b81548152906001019060200180831161121157829003601f168201915b505050505081565b816006600082815260200190815260200160002060090160009054906101000a900460ff16611291576040517fd42039af00000000000000000000000000000000000000000000000000000000815260040160405180910390fd5b60006006600085815260200190815260200160002060405180610140016040529081600082015481526020016001820160009054906101000a900473ffffffffffffffffffffffffffffffffffffffff1673ffffffffffffffffffffffffffffffffffffffff1673ffffffffffffffffffffffffffffffffffffffff1681526020016002820160009054906101000a900473ffffffffffffffffffffffffffffffffffffffff1673ffffffffffffffffffffffffffffffffffffffff1673ffffffffffffffffffffffffffffffffffffffff1681526020016003820154815260200160048201548152602001600582015481526020016006820160009054906101000a900473ffffffffffffffffffffffffffffffffffffffff1673ffffffffffffffffffffffffffffffffffffffff1673ffffffffffffffffffffffffffffffffffffffff16815260200160078201548152602001600882015481526020016009820160009054906101000a900460ff1615151515815250509050806020015173ffffffffffffffffffffffffffffffffffffffff163373ffffffffffffffffffffffffffffffffffffffff1614611476576040517f62af6ccb00000000000000000000000000000000000000000000000000000000815260040160405180910390fd5b60006114818561221d565b9050808411156114bd576040517f6752d5ad00000000000000000000000000000000000000000000000000000000815260040160405180910390fd5b600084116114f7576040517f43ad20fc00000000000000000000000000000000000000000000000000000000815260040160405180910390fd5b60008261010001510361160557600660008681526020019081526020016000206000808201600090556001820160006101000a81549073ffffffffffffffffffffffffffffffffffffffff02191690556002820160006101000a81549073ffffffffffffffffffffffffffffffffffffffff02191690556003820160009055600482016000905560058201600090556006820160006101000a81549073ffffffffffffffffffffffffffffffffffffffff0219169055600782016000905560088201600090556009820160006101000a81549060ff021916905550506040517f7364ba1700000000000000000000000000000000000000000000000000000000815260040160405180910390fd5b8382606001516116159190613710565b60066000878152602001908152602001600020600801819055508160c0015173ffffffffffffffffffffffffffffffffffffffff1663a9059cbb8360200151866040518363ffffffff1660e01b8152600401611672929190613980565b6020604051808303816000875af1158015611691573d6000803e3d6000fd5b505050506040513d601f19601f820116820180604052508101906116b59190613838565b507f36c3ab437e6a424ed25dc4bfdeb62706aa06558660fab2dab229d2555adaf89c858360200151866040516116ed939291906139a9565b60405180910390a15050505050565b6002602052816000526040600020602052806000526040600020600091509150505481565b60008060009054906101000a900473ffffffffffffffffffffffffffffffffffffffff16905090565b6000806000806000806000806000896006600082815260200190815260200160002060090160009054906101000a900460ff166117b3576040517fd42039af00000000000000000000000000000000000000000000000000000000815260040160405180910390fd5b600660008c815260200190815260200160002060010160009054906101000a900473ffffffffffffffffffffffffffffffffffffffff169950600660008c815260200190815260200160002060020160009054906101000a900473ffffffffffffffffffffffffffffffffffffffff169850600660008c8152602001908152602001600020600301549750600660008c8152602001908152602001600020600401549650600660008c8152602001908152602001600020600501549550600660008c815260200190815260200160002060060160009054906101000a900473ffffffffffffffffffffffffffffffffffffffff169450600660008c8152602001908152602001600020600701549350600660008c8152602001908152602001600020600801549250600660008c815260200190815260200160002060090160009054906101000a900460ff169150509193959799909294969850565b600360009054906101000a900473ffffffffffffffffffffffffffffffffffffffff1681565b60606000600160008461ffff1661ffff168152602001908152602001600020805461195f906135a1565b80601f016020809104026020016040519081016040528092919081815260200182805461198b906135a1565b80156119d85780601f106119ad576101008083540402835291602001916119d8565b820191906000526020600020905b8154815290600101906020018083116119bb57829003601f168201915b505050505090506000815103611a23576040517f08c379a0000000000000000000000000000000000000000000000000000000008152600401611a1a90613a2c565b60405180910390fd5b611a46600060148351611a369190613710565b836127f99092919063ffffffff16565b915050919050565b611a56612661565b818130604051602001611a6b93929190613a94565b604051602081830303815290604052600160008561ffff1661ffff1681526020019081526020016000209081611aa19190613c60565b507f8c0400cfe2d1199b1a725c78960bcc2a344d869b80590d0f2bd005db15a572ce838383604051611ad5939291906138bc565b60405180910390a1505050565b7f000000000000000000000000000000000000000000000000000000000000000081565b611b0e612661565b80600360006101000a81548173ffffffffffffffffffffffffffffffffffffffff021916908373ffffffffffffffffffffffffffffffffffffffff1602179055507f5db758e995a17ec1ad84bdef7e8c3293a0bd6179bcce400dff5d4c3d87db726b81604051611b7e91906131e4565b60405180910390a150565b611b91612661565b7f000000000000000000000000000000000000000000000000000000000000000073ffffffffffffffffffffffffffffffffffffffff1663cbed8b9c86868686866040518663ffffffff1660e01b8152600401611bf2959493929190613d32565b600060405180830381600087803b158015611c0c57600080fd5b505af1158015611c20573d6000803e3d6000fd5b505050505050505050565b6000806006600084815260200190815260200160002060405180610140016040529081600082015481526020016001820160009054906101000a900473ffffffffffffffffffffffffffffffffffffffff1673ffffffffffffffffffffffffffffffffffffffff1673ffffffffffffffffffffffffffffffffffffffff1681526020016002820160009054906101000a900473ffffffffffffffffffffffffffffffffffffffff1673ffffffffffffffffffffffffffffffffffffffff1673ffffffffffffffffffffffffffffffffffffffff1681526020016003820154815260200160048201548152602001600582015481526020016006820160009054906101000a900473ffffffffffffffffffffffffffffffffffffffff1673ffffffffffffffffffffffffffffffffffffffff1673ffffffffffffffffffffffffffffffffffffffff16815260200160078201548152602001600882015481526020016009820160009054906101000a900460ff161515151581525050905080608001514211611dbd576000915050611df9565b8060a00151421015611de157806080015142611dd99190613710565b915050611df9565b80608001518160a00151611df59190613710565b9150505b919050565b6000600460008861ffff1661ffff1681526020019081526020016000208686604051611e2b929190613602565b908152602001604051809103902060008567ffffffffffffffff1667ffffffffffffffff1681526020019081526020016000205490506000801b8103611ea6576040517f08c379a0000000000000000000000000000000000000000000000000000000008152600401611e9d90613df2565b60405180910390fd5b808383604051611eb7929190613602565b604051809103902014611eff576040517f08c379a0000000000000000000000000000000000000000000000000000000008152600401611ef690613e84565b60405180910390fd5b6000801b600460008961ffff1661ffff1681526020019081526020016000208787604051611f2e929190613602565b908152602001604051809103902060008667ffffffffffffffff1667ffffffffffffffff16815260200190815260200160002081905550611ff98787878080601f016020809104026020016040519081016040528093929190818152602001838380828437600081840152601f19601f820116905080830192505050505050508686868080601f016020809104026020016040519081016040528093929190818152602001838380828437600081840152601f19601f820116905080830192505050505050506126df565b7fc264d91f3adc5588250e1551f547752ca0cfa8f6b530d243b9f9f4cab10ea8e58787878785604051612030959493929190613eb3565b60405180910390a150505050505050565b612049612661565b6000811161208c576040517f08c379a000000000000000000000000000000000000000000000000000000000815260040161208390613f4d565b60405180910390fd5b80600260008561ffff1661ffff16815260200190815260200160002060008461ffff1661ffff168152602001908152602001600020819055507f9d5c7c0b934da8fefa9c7760c98383778a12dfbfc0c3b3106518f43fb9508ac08383836040516120f893929190613f6d565b60405180910390a1505050565b6000816040516020016121189190612e1f565b60405160208183030381529060405290506000600190506000600a90506000828260405160200161214a929190613ffb565b604051602081830303815290604052905061216a87853060008534612917565b7f49c140b92f7071fd58962ee8f69e637c41fec6470af0b2d3d329c0a7002d5ad9876040516121999190613874565b60405180910390a150505050505050565b6121b2612661565b8181600160008661ffff1661ffff16815260200190815260200160002091826121dc929190614032565b507ffa41487ad5d6728f0b19276fa1eddc16558578f5109fc39d2dc33c3230470dab838383604051612210939291906138bc565b60405180910390a1505050565b6000806006600084815260200190815260200160002060405180610140016040529081600082015481526020016001820160009054906101000a900473ffffffffffffffffffffffffffffffffffffffff1673ffffffffffffffffffffffffffffffffffffffff1673ffffffffffffffffffffffffffffffffffffffff1681526020016002820160009054906101000a900473ffffffffffffffffffffffffffffffffffffffff1673ffffffffffffffffffffffffffffffffffffffff1673ffffffffffffffffffffffffffffffffffffffff1681526020016003820154815260200160048201548152602001600582015481526020016006820160009054906101000a900473ffffffffffffffffffffffffffffffffffffffff1673ffffffffffffffffffffffffffffffffffffffff1673ffffffffffffffffffffffffffffffffffffffff16815260200160078201548152602001600882015481526020016009820160009054906101000a900460ff161515151581525050905060006123a584611c2b565b9050808260e001516123b79190614102565b92505050919050565b6123c8612661565b600073ffffffffffffffffffffffffffffffffffffffff168173ffffffffffffffffffffffffffffffffffffffff1603612437576040517f08c379a000000000000000000000000000000000000000000000000000000000815260040161242e906141b6565b60405180910390fd5b61244081612735565b50565b60607f000000000000000000000000000000000000000000000000000000000000000073ffffffffffffffffffffffffffffffffffffffff1663f5ecbdbc868630866040518563ffffffff1660e01b81526004016124a494939291906141d6565b600060405180830381865afa1580156124c1573d6000803e3d6000fd5b505050506040513d6000823e3d601f19601f820116820180604052508101906124ea919061428b565b9050949350505050565b600033905090565b6000806125a85a60966366ad5c8a60e01b8989898960405160240161252494939291906142d4565b604051602081830303815290604052907bffffffffffffffffffffffffffffffffffffffffffffffffffffffff19166020820180517bffffffffffffffffffffffffffffffffffffffffffffffffffffffff83818316178352505050503073ffffffffffffffffffffffffffffffffffffffff16612aa2909392919063ffffffff16565b9150915081612659578280519060200120600460008861ffff1661ffff168152602001908152602001600020866040516125e29190614358565b908152602001604051809103902060008667ffffffffffffffff1667ffffffffffffffff168152602001908152602001600020819055507fe183f33de2837795525b4792ca4cd60535bd77c53b7e7030060bfcf5734d6b0c868686868560405161265095949392919061436f565b60405180910390a15b505050505050565b6126696124f4565b73ffffffffffffffffffffffffffffffffffffffff16612687611721565b73ffffffffffffffffffffffffffffffffffffffff16146126dd576040517f08c379a00000000000000000000000000000000000000000000000000000000081526004016126d490614423565b60405180910390fd5b565b6000818060200190518101906126f59190614458565b90507fb10278cb5bbfff6eb667756c618a9af66912713089f06fc19b723d116bcd4604816040516127269190612e1f565b60405180910390a15050505050565b60008060009054906101000a900473ffffffffffffffffffffffffffffffffffffffff169050816000806101000a81548173ffffffffffffffffffffffffffffffffffffffff021916908373ffffffffffffffffffffffffffffffffffffffff1602179055508173ffffffffffffffffffffffffffffffffffffffff168173ffffffffffffffffffffffffffffffffffffffff167f8be0079c531659141344cd1fd0a4f28419497f9722a3daafe3b4186f6b6457e060405160405180910390a35050565b606081601f8361280991906136dc565b101561284a576040517f08c379a0000000000000000000000000000000000000000000000000000000008152600401612841906144d1565b60405180910390fd5b818361285691906136dc565b84511015612899576040517f08c379a00000000000000000000000000000000000000000000000000000000081526004016128909061453d565b60405180910390fd5b60608215600081146128ba576040519150600082526020820160405261290b565b6040519150601f8416801560200281840101858101878315602002848b0101015b818310156128f857805183526020830192506020810190506128db565b50868552601f19601f8301166040525050505b50809150509392505050565b6000600160008861ffff1661ffff168152602001908152602001600020805461293f906135a1565b80601f016020809104026020016040519081016040528092919081815260200182805461296b906135a1565b80156129b85780601f1061298d576101008083540402835291602001916129b8565b820191906000526020600020905b81548152906001019060200180831161299b57829003601f168201915b505050505090506000815103612a03576040517f08c379a00000000000000000000000000000000000000000000000000000000081526004016129fa906145cf565b60405180910390fd5b7f000000000000000000000000000000000000000000000000000000000000000073ffffffffffffffffffffffffffffffffffffffff1663c58031008389848a8a8a8a6040518863ffffffff1660e01b8152600401612a6796959493929190614610565b6000604051808303818588803b158015612a8057600080fd5b505af1158015612a94573d6000803e3d6000fd5b505050505050505050505050565b6000606060008060008661ffff1667ffffffffffffffff811115612ac957612ac8612ee6565b5b6040519080825280601f01601f191660200182016040528015612afb5781602001600182028036833780820191505090505b50905060008087516020890160008d8df191503d925086831115612b1d578692505b828152826000602083013e81819450945050505094509492505050565b6000604051905090565b600080fd5b600080fd5b600061ffff82169050919050565b612b6581612b4e565b8114612b7057600080fd5b50565b600081359050612b8281612b5c565b92915050565b600080fd5b600080fd5b600080fd5b60008083601f840112612bad57612bac612b88565b5b8235905067ffffffffffffffff811115612bca57612bc9612b8d565b5b602083019150836001820283011115612be657612be5612b92565b5b9250929050565b600067ffffffffffffffff82169050919050565b612c0a81612bed565b8114612c1557600080fd5b50565b600081359050612c2781612c01565b92915050565b60008060008060008060808789031215612c4a57612c49612b44565b5b6000612c5889828a01612b73565b965050602087013567ffffffffffffffff811115612c7957612c78612b49565b5b612c8589828a01612b97565b95509550506040612c9889828a01612c18565b935050606087013567ffffffffffffffff811115612cb957612cb8612b49565b5b612cc589828a01612b97565b92509250509295509295509295565b600073ffffffffffffffffffffffffffffffffffffffff82169050919050565b6000612cff82612cd4565b9050919050565b612d0f81612cf4565b8114612d1a57600080fd5b50565b600081359050612d2c81612d06565b92915050565b6000819050919050565b612d4581612d32565b8114612d5057600080fd5b50565b600081359050612d6281612d3c565b92915050565b600080600080600060a08688031215612d8457612d83612b44565b5b6000612d9288828901612d1d565b9550506020612da388828901612d1d565b9450506040612db488828901612d53565b9350506060612dc588828901612d53565b9250506080612dd688828901612d53565b9150509295509295909350565b600060208284031215612df957612df8612b44565b5b6000612e0784828501612b73565b91505092915050565b612e1981612d32565b82525050565b6000602082019050612e346000830184612e10565b92915050565b600080600060408486031215612e5357612e52612b44565b5b6000612e6186828701612b73565b935050602084013567ffffffffffffffff811115612e8257612e81612b49565b5b612e8e86828701612b97565b92509250509250925092565b60008115159050919050565b612eaf81612e9a565b82525050565b6000602082019050612eca6000830184612ea6565b92915050565b600080fd5b6000601f19601f8301169050919050565b7f4e487b7100000000000000000000000000000000000000000000000000000000600052604160045260246000fd5b612f1e82612ed5565b810181811067ffffffffffffffff82111715612f3d57612f3c612ee6565b5b80604052505050565b6000612f50612b3a565b9050612f5c8282612f15565b919050565b600067ffffffffffffffff821115612f7c57612f7b612ee6565b5b612f8582612ed5565b9050602081019050919050565b82818337600083830152505050565b6000612fb4612faf84612f61565b612f46565b905082815260208101848484011115612fd057612fcf612ed0565b5b612fdb848285612f92565b509392505050565b600082601f830112612ff857612ff7612b88565b5b8135613008848260208601612fa1565b91505092915050565b60008060006060848603121561302a57613029612b44565b5b600061303886828701612b73565b935050602084013567ffffffffffffffff81111561305957613058612b49565b5b61306586828701612fe3565b925050604061307686828701612c18565b9150509250925092565b6000819050919050565b61309381613080565b82525050565b60006020820190506130ae600083018461308a565b92915050565b600081519050919050565b600082825260208201905092915050565b60005b838110156130ee5780820151818401526020810190506130d3565b60008484015250505050565b6000613105826130b4565b61310f81856130bf565b935061311f8185602086016130d0565b61312881612ed5565b840191505092915050565b6000602082019050818103600083015261314d81846130fa565b905092915050565b6000806040838503121561316c5761316b612b44565b5b600061317a85828601612d53565b925050602061318b85828601612d53565b9150509250929050565b600080604083850312156131ac576131ab612b44565b5b60006131ba85828601612b73565b92505060206131cb85828601612b73565b9150509250929050565b6131de81612cf4565b82525050565b60006020820190506131f960008301846131d5565b92915050565b60006020828403121561321557613214612b44565b5b600061322384828501612d53565b91505092915050565b600061012082019050613242600083018c6131d5565b61324f602083018b6131d5565b61325c604083018a612e10565b6132696060830189612e10565b6132766080830188612e10565b61328360a08301876131d5565b61329060c0830186612e10565b61329d60e0830185612e10565b6132ab610100830184612ea6565b9a9950505050505050505050565b6000819050919050565b60006132de6132d96132d484612cd4565b6132b9565b612cd4565b9050919050565b60006132f0826132c3565b9050919050565b6000613302826132e5565b9050919050565b613312816132f7565b82525050565b600060208201905061332d6000830184613309565b92915050565b60006020828403121561334957613348612b44565b5b600061335784828501612d1d565b91505092915050565b60008060008060006080868803121561337c5761337b612b44565b5b600061338a88828901612b73565b955050602061339b88828901612b73565b94505060406133ac88828901612d53565b935050606086013567ffffffffffffffff8111156133cd576133cc612b49565b5b6133d988828901612b97565b92509250509295509295909350565b60008060006060848603121561340157613400612b44565b5b600061340f86828701612b73565b935050602061342086828701612b73565b925050604061343186828701612d53565b9150509250925092565b60008060006060848603121561345457613453612b44565b5b600061346286828701612b73565b935050602061347386828701612d1d565b925050604061348486828701612d53565b9150509250925092565b600080600080608085870312156134a8576134a7612b44565b5b60006134b687828801612b73565b94505060206134c787828801612b73565b93505060406134d887828801612d1d565b92505060606134e987828801612d53565b91505092959194509250565b600082825260208201905092915050565b7f4c7a4170703a20696e76616c696420656e64706f696e742063616c6c65720000600082015250565b600061353c601e836134f5565b915061354782613506565b602082019050919050565b6000602082019050818103600083015261356b8161352f565b9050919050565b7f4e487b7100000000000000000000000000000000000000000000000000000000600052602260045260246000fd5b600060028204905060018216806135b957607f821691505b6020821081036135cc576135cb613572565b5b50919050565b600081905092915050565b60006135e983856135d2565b93506135f6838584612f92565b82840190509392505050565b600061360f8284866135dd565b91508190509392505050565b7f4c7a4170703a20696e76616c696420736f757263652073656e64696e6720636f60008201527f6e74726163740000000000000000000000000000000000000000000000000000602082015250565b60006136776026836134f5565b91506136828261361b565b604082019050919050565b600060208201905081810360008301526136a68161366a565b9050919050565b7f4e487b7100000000000000000000000000000000000000000000000000000000600052601160045260246000fd5b60006136e782612d32565b91506136f283612d32565b925082820190508082111561370a576137096136ad565b5b92915050565b600061371b82612d32565b915061372683612d32565b925082820390508181111561373e5761373d6136ad565b5b92915050565b7f4e487b7100000000000000000000000000000000000000000000000000000000600052601260045260246000fd5b600061377e82612d32565b915061378983612d32565b92508261379957613798613744565b5b828206905092915050565b60006137af82612d32565b91506137ba83612d32565b9250826137ca576137c9613744565b5b828204905092915050565b60006060820190506137ea60008301866131d5565b6137f760208301856131d5565b6138046040830184612e10565b949350505050565b61381581612e9a565b811461382057600080fd5b50565b6000815190506138328161380c565b92915050565b60006020828403121561384e5761384d612b44565b5b600061385c84828501613823565b91505092915050565b61386e81612b4e565b82525050565b60006020820190506138896000830184613865565b92915050565b600061389b83856130bf565b93506138a8838584612f92565b6138b183612ed5565b840190509392505050565b60006040820190506138d16000830186613865565b81810360208301526138e481848661388f565b9050949350505050565b7f4e6f6e626c6f636b696e674c7a4170703a2063616c6c6572206d75737420626560008201527f204c7a4170700000000000000000000000000000000000000000000000000000602082015250565b600061394a6026836134f5565b9150613955826138ee565b604082019050919050565b600060208201905081810360008301526139798161393d565b9050919050565b600060408201905061399560008301856131d5565b6139a26020830184612e10565b9392505050565b60006060820190506139be6000830186612e10565b6139cb60208301856131d5565b6139d86040830184612e10565b949350505050565b7f4c7a4170703a206e6f20747275737465642070617468207265636f7264000000600082015250565b6000613a16601d836134f5565b9150613a21826139e0565b602082019050919050565b60006020820190508181036000830152613a4581613a09565b9050919050565b60008160601b9050919050565b6000613a6482613a4c565b9050919050565b6000613a7682613a59565b9050919050565b613a8e613a8982612cf4565b613a6b565b82525050565b6000613aa18285876135dd565b9150613aad8284613a7d565b601482019150819050949350505050565b60008190508160005260206000209050919050565b60006020601f8301049050919050565b600082821b905092915050565b600060088302613b207fffffffffffffffffffffffffffffffffffffffffffffffffffffffffffffffff82613ae3565b613b2a8683613ae3565b95508019841693508086168417925050509392505050565b6000613b5d613b58613b5384612d32565b6132b9565b612d32565b9050919050565b6000819050919050565b613b7783613b42565b613b8b613b8382613b64565b848454613af0565b825550505050565b600090565b613ba0613b93565b613bab818484613b6e565b505050565b5b81811015613bcf57613bc4600082613b98565b600181019050613bb1565b5050565b601f821115613c1457613be581613abe565b613bee84613ad3565b81016020851015613bfd578190505b613c11613c0985613ad3565b830182613bb0565b50505b505050565b600082821c905092915050565b6000613c3760001984600802613c19565b1980831691505092915050565b6000613c508383613c26565b9150826002028217905092915050565b613c69826130b4565b67ffffffffffffffff811115613c8257613c81612ee6565b5b613c8c82546135a1565b613c97828285613bd3565b600060209050601f831160018114613cca5760008415613cb8578287015190505b613cc28582613c44565b865550613d2a565b601f198416613cd886613abe565b60005b82811015613d0057848901518255600182019150602085019450602081019050613cdb565b86831015613d1d5784890151613d19601f891682613c26565b8355505b6001600288020188555050505b505050505050565b6000608082019050613d476000830188613865565b613d546020830187613865565b613d616040830186612e10565b8181036060830152613d7481848661388f565b90509695505050505050565b7f4e6f6e626c6f636b696e674c7a4170703a206e6f2073746f726564206d65737360008201527f6167650000000000000000000000000000000000000000000000000000000000602082015250565b6000613ddc6023836134f5565b9150613de782613d80565b604082019050919050565b60006020820190508181036000830152613e0b81613dcf565b9050919050565b7f4e6f6e626c6f636b696e674c7a4170703a20696e76616c6964207061796c6f6160008201527f6400000000000000000000000000000000000000000000000000000000000000602082015250565b6000613e6e6021836134f5565b9150613e7982613e12565b604082019050919050565b60006020820190508181036000830152613e9d81613e61565b9050919050565b613ead81612bed565b82525050565b6000608082019050613ec86000830188613865565b8181036020830152613edb81868861388f565b9050613eea6040830185613ea4565b613ef7606083018461308a565b9695505050505050565b7f4c7a4170703a20696e76616c6964206d696e4761730000000000000000000000600082015250565b6000613f376015836134f5565b9150613f4282613f01565b602082019050919050565b60006020820190508181036000830152613f6681613f2a565b9050919050565b6000606082019050613f826000830186613865565b613f8f6020830185613865565b613f9c6040830184612e10565b949350505050565b60008160f01b9050919050565b6000613fbc82613fa4565b9050919050565b613fd4613fcf82612b4e565b613fb1565b82525050565b6000819050919050565b613ff5613ff082612d32565b613fda565b82525050565b60006140078285613fc3565b6002820191506140178284613fe4565b6020820191508190509392505050565b600082905092915050565b61403c8383614027565b67ffffffffffffffff81111561405557614054612ee6565b5b61405f82546135a1565b61406a828285613bd3565b6000601f8311600181146140995760008415614087578287013590505b6140918582613c44565b8655506140f9565b601f1984166140a786613abe565b60005b828110156140cf578489013582556001820191506020850194506020810190506140aa565b868310156140ec57848901356140e8601f891682613c26565b8355505b6001600288020188555050505b50505050505050565b600061410d82612d32565b915061411883612d32565b925082820261412681612d32565b9150828204841483151761413d5761413c6136ad565b5b5092915050565b7f4f776e61626c653a206e6577206f776e657220697320746865207a65726f206160008201527f6464726573730000000000000000000000000000000000000000000000000000602082015250565b60006141a06026836134f5565b91506141ab82614144565b604082019050919050565b600060208201905081810360008301526141cf81614193565b9050919050565b60006080820190506141eb6000830187613865565b6141f86020830186613865565b61420560408301856131d5565b6142126060830184612e10565b95945050505050565b600061422e61422984612f61565b612f46565b90508281526020810184848401111561424a57614249612ed0565b5b6142558482856130d0565b509392505050565b600082601f83011261427257614271612b88565b5b815161428284826020860161421b565b91505092915050565b6000602082840312156142a1576142a0612b44565b5b600082015167ffffffffffffffff8111156142bf576142be612b49565b5b6142cb8482850161425d565b91505092915050565b60006080820190506142e96000830187613865565b81810360208301526142fb81866130fa565b905061430a6040830185613ea4565b818103606083015261431c81846130fa565b905095945050505050565b6000614332826130b4565b61433c81856135d2565b935061434c8185602086016130d0565b80840191505092915050565b60006143648284614327565b915081905092915050565b600060a0820190506143846000830188613865565b818103602083015261439681876130fa565b90506143a56040830186613ea4565b81810360608301526143b781856130fa565b905081810360808301526143cb81846130fa565b90509695505050505050565b7f4f776e61626c653a2063616c6c6572206973206e6f7420746865206f776e6572600082015250565b600061440d6020836134f5565b9150614418826143d7565b602082019050919050565b6000602082019050818103600083015261443c81614400565b9050919050565b60008151905061445281612d3c565b92915050565b60006020828403121561446e5761446d612b44565b5b600061447c84828501614443565b91505092915050565b7f736c6963655f6f766572666c6f77000000000000000000000000000000000000600082015250565b60006144bb600e836134f5565b91506144c682614485565b602082019050919050565b600060208201905081810360008301526144ea816144ae565b9050919050565b7f736c6963655f6f75744f66426f756e6473000000000000000000000000000000600082015250565b60006145276011836134f5565b9150614532826144f1565b602082019050919050565b600060208201905081810360008301526145568161451a565b9050919050565b7f4c7a4170703a2064657374696e6174696f6e20636861696e206973206e6f742060008201527f61207472757374656420736f7572636500000000000000000000000000000000602082015250565b60006145b96030836134f5565b91506145c48261455d565b604082019050919050565b600060208201905081810360008301526145e8816145ac565b9050919050565b60006145fa82612cd4565b9050919050565b61460a816145ef565b82525050565b600060c0820190506146256000830189613865565b818103602083015261463781886130fa565b9050818103604083015261464b81876130fa565b905061465a6060830186614601565b61466760808301856131d5565b81810360a083015261467981846130fa565b905097965050505050505056fea2646970667358221220f94acbb945950c3c0df4a2ac842fa56307ef60551dc900cff7397b22e0230f7a64736f6c63430008110033",
  "devdoc": {
    "kind": "dev",
    "methods": {
      "owner()": {
        "details": "Returns the address of the current owner."
      },
      "renounceOwnership()": {
        "details": "Leaves the contract without owner. It will not be possible to call `onlyOwner` functions anymore. Can only be called by the current owner. NOTE: Renouncing ownership will leave the contract without an owner, thereby removing any functionality that is only available to the owner."
      },
      "transferOwnership(address)": {
        "details": "Transfers ownership of the contract to a new account (`newOwner`). Can only be called by the current owner."
      }
    },
    "version": 1
  },
  "userdoc": {
    "kind": "user",
    "methods": {},
    "version": 1
  },
  "storageLayout": {
    "storage": [
      {
        "astId": 7,
        "contract": "contracts/Vester.sol:Vester",
        "label": "_owner",
        "offset": 0,
        "slot": "0",
        "type": "t_address"
      },
      {
        "astId": 1217,
        "contract": "contracts/Vester.sol:Vester",
        "label": "trustedRemoteLookup",
        "offset": 0,
        "slot": "1",
        "type": "t_mapping(t_uint16,t_bytes_storage)"
      },
      {
        "astId": 1223,
        "contract": "contracts/Vester.sol:Vester",
        "label": "minDstGasLookup",
        "offset": 0,
        "slot": "2",
        "type": "t_mapping(t_uint16,t_mapping(t_uint16,t_uint256))"
      },
      {
        "astId": 1225,
        "contract": "contracts/Vester.sol:Vester",
        "label": "precrime",
        "offset": 0,
        "slot": "3",
        "type": "t_address"
      },
      {
        "astId": 1710,
        "contract": "contracts/Vester.sol:Vester",
        "label": "failedMessages",
        "offset": 0,
        "slot": "4",
        "type": "t_mapping(t_uint16,t_mapping(t_bytes_memory_ptr,t_mapping(t_uint64,t_bytes32)))"
      },
      {
        "astId": 243,
        "contract": "contracts/Vester.sol:Vester",
        "label": "nextStreamId",
        "offset": 0,
        "slot": "5",
        "type": "t_uint256"
      },
      {
        "astId": 269,
        "contract": "contracts/Vester.sol:Vester",
        "label": "streams",
        "offset": 0,
        "slot": "6",
        "type": "t_mapping(t_uint256,t_struct(Stream)264_storage)"
      }
    ],
    "types": {
      "t_address": {
        "encoding": "inplace",
        "label": "address",
        "numberOfBytes": "20"
      },
      "t_bool": {
        "encoding": "inplace",
        "label": "bool",
        "numberOfBytes": "1"
      },
      "t_bytes32": {
        "encoding": "inplace",
        "label": "bytes32",
        "numberOfBytes": "32"
      },
      "t_bytes_memory_ptr": {
        "encoding": "bytes",
        "label": "bytes",
        "numberOfBytes": "32"
      },
      "t_bytes_storage": {
        "encoding": "bytes",
        "label": "bytes",
        "numberOfBytes": "32"
      },
      "t_mapping(t_bytes_memory_ptr,t_mapping(t_uint64,t_bytes32))": {
        "encoding": "mapping",
        "key": "t_bytes_memory_ptr",
        "label": "mapping(bytes => mapping(uint64 => bytes32))",
        "numberOfBytes": "32",
        "value": "t_mapping(t_uint64,t_bytes32)"
      },
      "t_mapping(t_uint16,t_bytes_storage)": {
        "encoding": "mapping",
        "key": "t_uint16",
        "label": "mapping(uint16 => bytes)",
        "numberOfBytes": "32",
        "value": "t_bytes_storage"
      },
      "t_mapping(t_uint16,t_mapping(t_bytes_memory_ptr,t_mapping(t_uint64,t_bytes32)))": {
        "encoding": "mapping",
        "key": "t_uint16",
        "label": "mapping(uint16 => mapping(bytes => mapping(uint64 => bytes32)))",
        "numberOfBytes": "32",
        "value": "t_mapping(t_bytes_memory_ptr,t_mapping(t_uint64,t_bytes32))"
      },
      "t_mapping(t_uint16,t_mapping(t_uint16,t_uint256))": {
        "encoding": "mapping",
        "key": "t_uint16",
        "label": "mapping(uint16 => mapping(uint16 => uint256))",
        "numberOfBytes": "32",
        "value": "t_mapping(t_uint16,t_uint256)"
      },
      "t_mapping(t_uint16,t_uint256)": {
        "encoding": "mapping",
        "key": "t_uint16",
        "label": "mapping(uint16 => uint256)",
        "numberOfBytes": "32",
        "value": "t_uint256"
      },
      "t_mapping(t_uint256,t_struct(Stream)264_storage)": {
        "encoding": "mapping",
        "key": "t_uint256",
        "label": "mapping(uint256 => struct Vester.Stream)",
        "numberOfBytes": "32",
        "value": "t_struct(Stream)264_storage"
      },
      "t_mapping(t_uint64,t_bytes32)": {
        "encoding": "mapping",
        "key": "t_uint64",
        "label": "mapping(uint64 => bytes32)",
        "numberOfBytes": "32",
        "value": "t_bytes32"
      },
      "t_struct(Stream)264_storage": {
        "encoding": "inplace",
        "label": "struct Vester.Stream",
        "members": [
          {
            "astId": 245,
            "contract": "contracts/Vester.sol:Vester",
            "label": "streamId",
            "offset": 0,
            "slot": "0",
            "type": "t_uint256"
          },
          {
            "astId": 247,
            "contract": "contracts/Vester.sol:Vester",
            "label": "user",
            "offset": 0,
            "slot": "1",
            "type": "t_address"
          },
          {
            "astId": 249,
            "contract": "contracts/Vester.sol:Vester",
            "label": "sender",
            "offset": 0,
            "slot": "2",
            "type": "t_address"
          },
          {
            "astId": 251,
            "contract": "contracts/Vester.sol:Vester",
            "label": "depositAmount",
            "offset": 0,
            "slot": "3",
            "type": "t_uint256"
          },
          {
            "astId": 253,
            "contract": "contracts/Vester.sol:Vester",
            "label": "startTime",
            "offset": 0,
            "slot": "4",
            "type": "t_uint256"
          },
          {
            "astId": 255,
            "contract": "contracts/Vester.sol:Vester",
            "label": "endTime",
            "offset": 0,
            "slot": "5",
            "type": "t_uint256"
          },
          {
            "astId": 257,
            "contract": "contracts/Vester.sol:Vester",
            "label": "tokenAddress",
            "offset": 0,
            "slot": "6",
            "type": "t_address"
          },
          {
            "astId": 259,
            "contract": "contracts/Vester.sol:Vester",
            "label": "ratesPerSecond",
            "offset": 0,
            "slot": "7",
            "type": "t_uint256"
          },
          {
            "astId": 261,
            "contract": "contracts/Vester.sol:Vester",
            "label": "balance",
            "offset": 0,
            "slot": "8",
            "type": "t_uint256"
          },
          {
            "astId": 263,
            "contract": "contracts/Vester.sol:Vester",
            "label": "active",
            "offset": 0,
            "slot": "9",
            "type": "t_bool"
          }
        ],
        "numberOfBytes": "320"
      },
      "t_uint16": {
        "encoding": "inplace",
        "label": "uint16",
        "numberOfBytes": "2"
      },
      "t_uint256": {
        "encoding": "inplace",
        "label": "uint256",
        "numberOfBytes": "32"
      },
      "t_uint64": {
        "encoding": "inplace",
        "label": "uint64",
        "numberOfBytes": "8"
      }
    }
  }
}