{
  "address": "0xFbD73b95903284C74C43f5b5EA281A01D7b4F817",
  "abi": [
    {
      "inputs": [
        {
          "internalType": "address",
          "name": "_endpoint",
          "type": "address"
        }
      ],
      "stateMutability": "nonpayable",
      "type": "constructor"
    },
    {
      "inputs": [],
      "name": "AmountIsZero",
      "type": "error"
    },
    {
      "inputs": [],
      "name": "ContractCantBeUser",
      "type": "error"
    },
    {
      "inputs": [],
      "name": "DepositAmountTooLow",
      "type": "error"
    },
    {
      "inputs": [],
      "name": "EndTimeNotCompatible",
      "type": "error"
    },
    {
      "inputs": [],
      "name": "NoTokensLeft",
      "type": "error"
    },
    {
      "inputs": [],
      "name": "NotYourStream",
      "type": "error"
    },
    {
      "inputs": [],
      "name": "RateCantBeZero",
      "type": "error"
    },
    {
      "inputs": [],
      "name": "RedeemableBalanceIsLowerThenAmount",
      "type": "error"
    },
    {
      "inputs": [],
      "name": "StreamDoesntExist",
      "type": "error"
    },
    {
      "anonymous": false,
      "inputs": [
        {
          "indexed": false,
          "internalType": "uint16",
          "name": "_srcChainId",
          "type": "uint16"
        },
        {
          "indexed": false,
          "internalType": "bytes",
          "name": "_srcAddress",
          "type": "bytes"
        },
        {
          "indexed": false,
          "internalType": "uint64",
          "name": "_nonce",
          "type": "uint64"
        },
        {
          "indexed": false,
          "internalType": "bytes",
          "name": "_payload",
          "type": "bytes"
        },
        {
          "indexed": false,
          "internalType": "bytes",
          "name": "_reason",
          "type": "bytes"
        }
      ],
      "name": "MessageFailed",
      "type": "event"
    },
    {
      "anonymous": false,
      "inputs": [
        {
          "indexed": false,
          "internalType": "uint256",
          "name": "streamId",
          "type": "uint256"
        }
      ],
      "name": "MessageRecieved",
      "type": "event"
    },
    {
      "anonymous": false,
      "inputs": [
        {
          "indexed": true,
          "internalType": "address",
          "name": "previousOwner",
          "type": "address"
        },
        {
          "indexed": true,
          "internalType": "address",
          "name": "newOwner",
          "type": "address"
        }
      ],
      "name": "OwnershipTransferred",
      "type": "event"
    },
    {
      "anonymous": false,
      "inputs": [
        {
          "indexed": false,
          "internalType": "uint16",
          "name": "_srcChainId",
          "type": "uint16"
        },
        {
          "indexed": false,
          "internalType": "bytes",
          "name": "_srcAddress",
          "type": "bytes"
        },
        {
          "indexed": false,
          "internalType": "uint64",
          "name": "_nonce",
          "type": "uint64"
        },
        {
          "indexed": false,
          "internalType": "bytes32",
          "name": "_payloadHash",
          "type": "bytes32"
        }
      ],
      "name": "RetryMessageSuccess",
      "type": "event"
    },
    {
      "anonymous": false,
      "inputs": [
        {
          "indexed": false,
          "internalType": "uint16",
          "name": "chainId",
          "type": "uint16"
        }
      ],
      "name": "SentMessage",
      "type": "event"
    },
    {
      "anonymous": false,
      "inputs": [
        {
          "indexed": false,
          "internalType": "uint16",
          "name": "_dstChainId",
          "type": "uint16"
        },
        {
          "indexed": false,
          "internalType": "uint16",
          "name": "_type",
          "type": "uint16"
        },
        {
          "indexed": false,
          "internalType": "uint256",
          "name": "_minDstGas",
          "type": "uint256"
        }
      ],
      "name": "SetMinDstGas",
      "type": "event"
    },
    {
      "anonymous": false,
      "inputs": [
        {
          "indexed": false,
          "internalType": "address",
          "name": "precrime",
          "type": "address"
        }
      ],
      "name": "SetPrecrime",
      "type": "event"
    },
    {
      "anonymous": false,
      "inputs": [
        {
          "indexed": false,
          "internalType": "uint16",
          "name": "_remoteChainId",
          "type": "uint16"
        },
        {
          "indexed": false,
          "internalType": "bytes",
          "name": "_path",
          "type": "bytes"
        }
      ],
      "name": "SetTrustedRemote",
      "type": "event"
    },
    {
      "anonymous": false,
      "inputs": [
        {
          "indexed": false,
          "internalType": "uint16",
          "name": "_remoteChainId",
          "type": "uint16"
        },
        {
          "indexed": false,
          "internalType": "bytes",
          "name": "_remoteAddress",
          "type": "bytes"
        }
      ],
      "name": "SetTrustedRemoteAddress",
      "type": "event"
    },
    {
      "anonymous": false,
      "inputs": [
        {
          "indexed": false,
          "internalType": "uint256",
          "name": "streamId",
          "type": "uint256"
        }
      ],
      "name": "StreamCreated",
      "type": "event"
    },
    {
      "anonymous": false,
      "inputs": [
        {
          "indexed": false,
          "internalType": "uint256",
          "name": "streamId",
          "type": "uint256"
        },
        {
          "indexed": false,
          "internalType": "address",
          "name": "user",
          "type": "address"
        },
        {
          "indexed": false,
          "internalType": "uint256",
          "name": "amount",
          "type": "uint256"
        }
      ],
      "name": "WithdrawFromStream",
      "type": "event"
    },
    {
      "inputs": [
        {
          "internalType": "address",
          "name": "tokenAddress",
          "type": "address"
        },
        {
          "internalType": "address",
          "name": "user",
          "type": "address"
        },
        {
          "internalType": "uint256",
          "name": "startTime",
          "type": "uint256"
        },
        {
          "internalType": "uint256",
          "name": "endTime",
          "type": "uint256"
        },
        {
          "internalType": "uint256",
          "name": "depositAmount",
          "type": "uint256"
        }
      ],
      "name": "createStream",
      "outputs": [],
      "stateMutability": "nonpayable",
      "type": "function"
    },
    {
      "inputs": [
        {
          "internalType": "uint16",
          "name": "",
          "type": "uint16"
        },
        {
          "internalType": "bytes",
          "name": "",
          "type": "bytes"
        },
        {
          "internalType": "uint64",
          "name": "",
          "type": "uint64"
        }
      ],
      "name": "failedMessages",
      "outputs": [
        {
          "internalType": "bytes32",
          "name": "",
          "type": "bytes32"
        }
      ],
      "stateMutability": "view",
      "type": "function"
    },
    {
      "inputs": [
        {
          "internalType": "uint16",
          "name": "_srcChainId",
          "type": "uint16"
        },
        {
          "internalType": "bytes",
          "name": "_srcAddress",
          "type": "bytes"
        }
      ],
      "name": "forceResumeReceive",
      "outputs": [],
      "stateMutability": "nonpayable",
      "type": "function"
    },
    {
      "inputs": [
        {
          "internalType": "uint16",
          "name": "_version",
          "type": "uint16"
        },
        {
          "internalType": "uint16",
          "name": "_chainId",
          "type": "uint16"
        },
        {
          "internalType": "address",
          "name": "",
          "type": "address"
        },
        {
          "internalType": "uint256",
          "name": "_configType",
          "type": "uint256"
        }
      ],
      "name": "getConfig",
      "outputs": [
        {
          "internalType": "bytes",
          "name": "",
          "type": "bytes"
        }
      ],
      "stateMutability": "view",
      "type": "function"
    },
    {
      "inputs": [
        {
          "internalType": "uint16",
          "name": "_remoteChainId",
          "type": "uint16"
        }
      ],
      "name": "getTrustedRemoteAddress",
      "outputs": [
        {
          "internalType": "bytes",
          "name": "",
          "type": "bytes"
        }
      ],
      "stateMutability": "view",
      "type": "function"
    },
    {
      "inputs": [
        {
          "internalType": "uint16",
          "name": "_srcChainId",
          "type": "uint16"
        },
        {
          "internalType": "bytes",
          "name": "_srcAddress",
          "type": "bytes"
        }
      ],
      "name": "isTrustedRemote",
      "outputs": [
        {
          "internalType": "bool",
          "name": "",
          "type": "bool"
        }
      ],
      "stateMutability": "view",
      "type": "function"
    },
    {
      "inputs": [],
      "name": "lzEndpoint",
      "outputs": [
        {
          "internalType": "contract ILayerZeroEndpoint",
          "name": "",
          "type": "address"
        }
      ],
      "stateMutability": "view",
      "type": "function"
    },
    {
      "inputs": [
        {
          "internalType": "uint16",
          "name": "_srcChainId",
          "type": "uint16"
        },
        {
          "internalType": "bytes",
          "name": "_srcAddress",
          "type": "bytes"
        },
        {
          "internalType": "uint64",
          "name": "_nonce",
          "type": "uint64"
        },
        {
          "internalType": "bytes",
          "name": "_payload",
          "type": "bytes"
        }
      ],
      "name": "lzReceive",
      "outputs": [],
      "stateMutability": "nonpayable",
      "type": "function"
    },
    {
      "inputs": [
        {
          "internalType": "uint16",
          "name": "",
          "type": "uint16"
        },
        {
          "internalType": "uint16",
          "name": "",
          "type": "uint16"
        }
      ],
      "name": "minDstGasLookup",
      "outputs": [
        {
          "internalType": "uint256",
          "name": "",
          "type": "uint256"
        }
      ],
      "stateMutability": "view",
      "type": "function"
    },
    {
      "inputs": [
        {
          "internalType": "uint16",
          "name": "_srcChainId",
          "type": "uint16"
        },
        {
          "internalType": "bytes",
          "name": "_srcAddress",
          "type": "bytes"
        },
        {
          "internalType": "uint64",
          "name": "_nonce",
          "type": "uint64"
        },
        {
          "internalType": "bytes",
          "name": "_payload",
          "type": "bytes"
        }
      ],
      "name": "nonblockingLzReceive",
      "outputs": [],
      "stateMutability": "nonpayable",
      "type": "function"
    },
    {
      "inputs": [],
      "name": "owner",
      "outputs": [
        {
          "internalType": "address",
          "name": "",
          "type": "address"
        }
      ],
      "stateMutability": "view",
      "type": "function"
    },
    {
      "inputs": [],
      "name": "precrime",
      "outputs": [
        {
          "internalType": "address",
          "name": "",
          "type": "address"
        }
      ],
      "stateMutability": "view",
      "type": "function"
    },
    {
      "inputs": [
        {
          "internalType": "uint256",
          "name": "streamId",
          "type": "uint256"
        }
      ],
      "name": "redeemableBalance",
      "outputs": [
        {
          "internalType": "uint256",
          "name": "",
          "type": "uint256"
        }
      ],
      "stateMutability": "view",
      "type": "function"
    },
    {
      "inputs": [],
      "name": "renounceOwnership",
      "outputs": [],
      "stateMutability": "nonpayable",
      "type": "function"
    },
    {
      "inputs": [
        {
          "internalType": "uint16",
          "name": "_srcChainId",
          "type": "uint16"
        },
        {
          "internalType": "bytes",
          "name": "_srcAddress",
          "type": "bytes"
        },
        {
          "internalType": "uint64",
          "name": "_nonce",
          "type": "uint64"
        },
        {
          "internalType": "bytes",
          "name": "_payload",
          "type": "bytes"
        }
      ],
      "name": "retryMessage",
      "outputs": [],
      "stateMutability": "payable",
      "type": "function"
    },
    {
      "inputs": [
        {
          "internalType": "uint16",
          "name": "_dstChainId",
          "type": "uint16"
        },
        {
          "internalType": "uint256",
          "name": "streamId",
          "type": "uint256"
        }
      ],
      "name": "sendMessage",
      "outputs": [],
      "stateMutability": "payable",
      "type": "function"
    },
    {
      "inputs": [
        {
          "internalType": "uint16",
          "name": "_version",
          "type": "uint16"
        },
        {
          "internalType": "uint16",
          "name": "_chainId",
          "type": "uint16"
        },
        {
          "internalType": "uint256",
          "name": "_configType",
          "type": "uint256"
        },
        {
          "internalType": "bytes",
          "name": "_config",
          "type": "bytes"
        }
      ],
      "name": "setConfig",
      "outputs": [],
      "stateMutability": "nonpayable",
      "type": "function"
    },
    {
      "inputs": [
        {
          "internalType": "uint16",
          "name": "_dstChainId",
          "type": "uint16"
        },
        {
          "internalType": "uint16",
          "name": "_packetType",
          "type": "uint16"
        },
        {
          "internalType": "uint256",
          "name": "_minGas",
          "type": "uint256"
        }
      ],
      "name": "setMinDstGas",
      "outputs": [],
      "stateMutability": "nonpayable",
      "type": "function"
    },
    {
      "inputs": [
        {
          "internalType": "address",
          "name": "_precrime",
          "type": "address"
        }
      ],
      "name": "setPrecrime",
      "outputs": [],
      "stateMutability": "nonpayable",
      "type": "function"
    },
    {
      "inputs": [
        {
          "internalType": "uint16",
          "name": "_version",
          "type": "uint16"
        }
      ],
      "name": "setReceiveVersion",
      "outputs": [],
      "stateMutability": "nonpayable",
      "type": "function"
    },
    {
      "inputs": [
        {
          "internalType": "uint16",
          "name": "_version",
          "type": "uint16"
        }
      ],
      "name": "setSendVersion",
      "outputs": [],
      "stateMutability": "nonpayable",
      "type": "function"
    },
    {
      "inputs": [
        {
          "internalType": "uint16",
          "name": "_srcChainId",
          "type": "uint16"
        },
        {
          "internalType": "bytes",
          "name": "_path",
          "type": "bytes"
        }
      ],
      "name": "setTrustedRemote",
      "outputs": [],
      "stateMutability": "nonpayable",
      "type": "function"
    },
    {
      "inputs": [
        {
          "internalType": "uint16",
          "name": "_remoteChainId",
          "type": "uint16"
        },
        {
          "internalType": "bytes",
          "name": "_remoteAddress",
          "type": "bytes"
        }
      ],
      "name": "setTrustedRemoteAddress",
      "outputs": [],
      "stateMutability": "nonpayable",
      "type": "function"
    },
    {
      "inputs": [
        {
          "internalType": "uint256",
          "name": "streamId",
          "type": "uint256"
        }
      ],
      "name": "timePassed",
      "outputs": [
        {
          "internalType": "uint256",
          "name": "",
          "type": "uint256"
        }
      ],
      "stateMutability": "view",
      "type": "function"
    },
    {
      "inputs": [
        {
          "internalType": "address",
          "name": "newOwner",
          "type": "address"
        }
      ],
      "name": "transferOwnership",
      "outputs": [],
      "stateMutability": "nonpayable",
      "type": "function"
    },
    {
      "inputs": [
        {
          "internalType": "uint16",
          "name": "",
          "type": "uint16"
        }
      ],
      "name": "trustedRemoteLookup",
      "outputs": [
        {
          "internalType": "bytes",
          "name": "",
          "type": "bytes"
        }
      ],
      "stateMutability": "view",
      "type": "function"
    },
    {
      "inputs": [],
      "name": "viewNextStreamId",
      "outputs": [
        {
          "internalType": "uint256",
          "name": "",
          "type": "uint256"
        }
      ],
      "stateMutability": "view",
      "type": "function"
    },
    {
      "inputs": [
        {
          "internalType": "uint256",
          "name": "streamId",
          "type": "uint256"
        }
      ],
      "name": "viewStream",
      "outputs": [
        {
          "internalType": "address",
          "name": "user",
          "type": "address"
        },
        {
          "internalType": "address",
          "name": "sender",
          "type": "address"
        },
        {
          "internalType": "uint256",
          "name": "depositAmount",
          "type": "uint256"
        },
        {
          "internalType": "uint256",
          "name": "startTime",
          "type": "uint256"
        },
        {
          "internalType": "uint256",
          "name": "endTime",
          "type": "uint256"
        },
        {
          "internalType": "address",
          "name": "tokenAddress",
          "type": "address"
        },
        {
          "internalType": "uint256",
          "name": "ratesPerSecond",
          "type": "uint256"
        },
        {
          "internalType": "uint256",
          "name": "balance",
          "type": "uint256"
        },
        {
          "internalType": "bool",
          "name": "active",
          "type": "bool"
        }
      ],
      "stateMutability": "view",
      "type": "function"
    },
    {
      "inputs": [
        {
          "internalType": "uint256",
          "name": "streamId",
          "type": "uint256"
        },
        {
          "internalType": "uint256",
          "name": "amount",
          "type": "uint256"
        }
      ],
      "name": "withdrawFromStream",
      "outputs": [],
      "stateMutability": "nonpayable",
      "type": "function"
    }
  ],
  "transactionHash": "0x3f8e8e38ef5fae7f7d3dde47da478778b6f38e1900728feaceca70e227d20613",
  "args": [
    "0xbfD2135BFfbb0B5378b56643c2Df8a87552Bfa23"
  ],
  "numDeployments": 1,
  "solcInputHash": "818c6697cd5c252c2412fa7401650d49",
  "bytecode": "0x60a060405260016005553480156200001657600080fd5b50604051620048673803806200486783398181016040528101906200003c9190620001d1565b80806200005e620000526200009b60201b60201c565b620000a360201b60201c565b8073ffffffffffffffffffffffffffffffffffffffff1660808173ffffffffffffffffffffffffffffffffffffffff168152505050505062000203565b600033905090565b60008060009054906101000a900473ffffffffffffffffffffffffffffffffffffffff169050816000806101000a81548173ffffffffffffffffffffffffffffffffffffffff021916908373ffffffffffffffffffffffffffffffffffffffff1602179055508173ffffffffffffffffffffffffffffffffffffffff168173ffffffffffffffffffffffffffffffffffffffff167f8be0079c531659141344cd1fd0a4f28419497f9722a3daafe3b4186f6b6457e060405160405180910390a35050565b600080fd5b600073ffffffffffffffffffffffffffffffffffffffff82169050919050565b600062000199826200016c565b9050919050565b620001ab816200018c565b8114620001b757600080fd5b50565b600081519050620001cb81620001a0565b92915050565b600060208284031215620001ea57620001e962000167565b5b6000620001fa84828501620001ba565b91505092915050565b608051614617620002506000396000818161070501528181610d5301528181610de901528181610f5d01528181611ae401528181611b930152818161242001526129f601526146176000f3fe6080604052600436106101c15760003560e01c80639072d416116100f7578063cfed919911610095578063eb8d72b711610064578063eb8d72b714610637578063ecda286514610660578063f2fde38b1461069d578063f5ecbdbc146106c6576101c1565b8063cfed919914610599578063d1deba1f146105d6578063df2a5b3b146105f2578063e93884531461061b576101c1565b8063a6c3d165116100d1578063a6c3d165146104f3578063b353aaa71461051c578063baf3292d14610547578063cbed8b9c14610570576101c1565b80639072d41614610446578063950c8a741461048b5780639f38369a146104b6576101c1565b80635b8c41e6116101645780637533d7881161013e5780637533d788146103785780637a9b2c6c146103b55780638cfd8f5c146103de5780638da5cb5b1461041b576101c1565b80635b8c41e6146102fb57806366ad5c8a14610338578063715018a614610361576101c1565b806310ddb137116101a057806310ddb137146102415780633495f8381461026a5780633d8b38f61461029557806342d65a8d146102d2576101c1565b80621d3567146101c657806306eb2dd3146101ef57806307e0db1714610218575b600080fd5b3480156101d257600080fd5b506101ed60048036038101906101e89190612c1e565b610703565b005b3480156101fb57600080fd5b5061021660048036038101906102119190612d59565b610959565b005b34801561022457600080fd5b5061023f600480360381019061023a9190612dd4565b610d49565b005b34801561024d57600080fd5b5061026860048036038101906102639190612dd4565b610ddf565b005b34801561027657600080fd5b5061027f610e75565b60405161028c9190612e10565b60405180910390f35b3480156102a157600080fd5b506102bc60048036038101906102b79190612e2b565b610e7f565b6040516102c99190612ea6565b60405180910390f35b3480156102de57600080fd5b506102f960048036038101906102f49190612e2b565b610f53565b005b34801561030757600080fd5b50610322600480360381019061031d9190613002565b610fef565b60405161032f919061308a565b60405180910390f35b34801561034457600080fd5b5061035f600480360381019061035a9190612c1e565b611037565b005b34801561036d57600080fd5b50610376611148565b005b34801561038457600080fd5b5061039f600480360381019061039a9190612dd4565b61115c565b6040516103ac9190613124565b60405180910390f35b3480156103c157600080fd5b506103dc60048036038101906103d79190613146565b6111fc565b005b3480156103ea57600080fd5b5061040560048036038101906104009190613186565b6116fc565b6040516104129190612e10565b60405180910390f35b34801561042757600080fd5b50610430611721565b60405161043d91906131d5565b60405180910390f35b34801561045257600080fd5b5061046d600480360381019061046891906131f0565b61174a565b6040516104829998979695949392919061321d565b60405180910390f35b34801561049757600080fd5b506104a061190f565b6040516104ad91906131d5565b60405180910390f35b3480156104c257600080fd5b506104dd60048036038101906104d89190612dd4565b611935565b6040516104ea9190613124565b60405180910390f35b3480156104ff57600080fd5b5061051a60048036038101906105159190612e2b565b611a4e565b005b34801561052857600080fd5b50610531611ae2565b60405161053e9190613309565b60405180910390f35b34801561055357600080fd5b5061056e60048036038101906105699190613324565b611b06565b005b34801561057c57600080fd5b5061059760048036038101906105929190613351565b611b89565b005b3480156105a557600080fd5b506105c060048036038101906105bb91906131f0565b611c2b565b6040516105cd9190612e10565b60405180910390f35b6105f060048036038101906105eb9190612c1e565b611dfe565b005b3480156105fe57600080fd5b50610619600480360381019061061491906133d9565b612041565b005b6106356004803603810190610630919061342c565b612105565b005b34801561064357600080fd5b5061065e60048036038101906106599190612e2b565b612183565b005b34801561066c57600080fd5b50610687600480360381019061068291906131f0565b6121f6565b6040516106949190612e10565b60405180910390f35b3480156106a957600080fd5b506106c460048036038101906106bf9190613324565b612399565b005b3480156106d257600080fd5b506106ed60048036038101906106e8919061346c565b61241c565b6040516106fa9190613124565b60405180910390f35b7f000000000000000000000000000000000000000000000000000000000000000073ffffffffffffffffffffffffffffffffffffffff166107426124cd565b73ffffffffffffffffffffffffffffffffffffffff1614610798576040517f08c379a000000000000000000000000000000000000000000000000000000000815260040161078f90613530565b60405180910390fd5b6000600160008861ffff1661ffff16815260200190815260200160002080546107c09061357f565b80601f01602080910402602001604051908101604052809291908181526020018280546107ec9061357f565b80156108395780601f1061080e57610100808354040283529160200191610839565b820191906000526020600020905b81548152906001019060200180831161081c57829003601f168201915b50505050509050805186869050148015610854575060008151115b801561087d5750808051906020012086866040516108739291906135e0565b6040518091039020145b6108bc576040517f08c379a00000000000000000000000000000000000000000000000000000000081526004016108b39061366b565b60405180910390fd5b6109508787878080601f016020809104026020016040519081016040528093929190818152602001838380828437600081840152601f19601f820116905080830192505050505050508686868080601f016020809104026020016040519081016040528093929190818152602001838380828437600081840152601f19601f820116905080830192505050505050506124d5565b50505050505050565b60008111610993576040517f55fcd02700000000000000000000000000000000000000000000000000000000815260040160405180910390fd5b3073ffffffffffffffffffffffffffffffffffffffff168473ffffffffffffffffffffffffffffffffffffffff16036109f8576040517f690c666f00000000000000000000000000000000000000000000000000000000815260040160405180910390fd5b600060055490506001600554610a0e91906136ba565b60058190555060008484610a2291906136ee565b905082811115610a5e576040517fb717128900000000000000000000000000000000000000000000000000000000815260040160405180910390fd5b60008184610a6c9190613751565b14610aa3576040517f2510db1000000000000000000000000000000000000000000000000000000000815260040160405180910390fd5b60008184610ab19190613782565b90506040518061014001604052808481526020018873ffffffffffffffffffffffffffffffffffffffff1681526020013373ffffffffffffffffffffffffffffffffffffffff1681526020018581526020018781526020018681526020018973ffffffffffffffffffffffffffffffffffffffff16815260200182815260200185815260200160011515815250600660008581526020019081526020016000206000820151816000015560208201518160010160006101000a81548173ffffffffffffffffffffffffffffffffffffffff021916908373ffffffffffffffffffffffffffffffffffffffff16021790555060408201518160020160006101000a81548173ffffffffffffffffffffffffffffffffffffffff021916908373ffffffffffffffffffffffffffffffffffffffff160217905550606082015181600301556080820151816004015560a0820151816005015560c08201518160060160006101000a81548173ffffffffffffffffffffffffffffffffffffffff021916908373ffffffffffffffffffffffffffffffffffffffff16021790555060e0820151816007015561010082015181600801556101208201518160090160006101000a81548160ff0219169083151502179055509050507f3056c83b2054f047a75323e4d65d14a30d96f2cecc797f0b03f3eeb786db876183604051610cb69190612e10565b60405180910390a18773ffffffffffffffffffffffffffffffffffffffff166323b872dd3330876040518463ffffffff1660e01b8152600401610cfb939291906137b3565b6020604051808303816000875af1158015610d1a573d6000803e3d6000fd5b505050506040513d601f19601f82011682018060405250810190610d3e9190613816565b505050505050505050565b610d5161263a565b7f000000000000000000000000000000000000000000000000000000000000000073ffffffffffffffffffffffffffffffffffffffff166307e0db17826040518263ffffffff1660e01b8152600401610daa9190613852565b600060405180830381600087803b158015610dc457600080fd5b505af1158015610dd8573d6000803e3d6000fd5b5050505050565b610de761263a565b7f000000000000000000000000000000000000000000000000000000000000000073ffffffffffffffffffffffffffffffffffffffff166310ddb137826040518263ffffffff1660e01b8152600401610e409190613852565b600060405180830381600087803b158015610e5a57600080fd5b505af1158015610e6e573d6000803e3d6000fd5b5050505050565b6000600554905090565b600080600160008661ffff1661ffff1681526020019081526020016000208054610ea89061357f565b80601f0160208091040260200160405190810160405280929190818152602001828054610ed49061357f565b8015610f215780601f10610ef657610100808354040283529160200191610f21565b820191906000526020600020905b815481529060010190602001808311610f0457829003601f168201915b505050505090508383604051610f389291906135e0565b60405180910390208180519060200120149150509392505050565b610f5b61263a565b7f000000000000000000000000000000000000000000000000000000000000000073ffffffffffffffffffffffffffffffffffffffff166342d65a8d8484846040518463ffffffff1660e01b8152600401610fb89392919061389a565b600060405180830381600087803b158015610fd257600080fd5b505af1158015610fe6573d6000803e3d6000fd5b50505050505050565b60046020528260005260406000208280516020810182018051848252602083016020850120818352809550505050505060205280600052604060002060009250925050505481565b3073ffffffffffffffffffffffffffffffffffffffff166110566124cd565b73ffffffffffffffffffffffffffffffffffffffff16146110ac576040517f08c379a00000000000000000000000000000000000000000000000000000000081526004016110a39061393e565b60405180910390fd5b6111408686868080601f016020809104026020016040519081016040528093929190818152602001838380828437600081840152601f19601f820116905080830192505050505050508585858080601f016020809104026020016040519081016040528093929190818152602001838380828437600081840152601f19601f820116905080830192505050505050506126b8565b505050505050565b61115061263a565b61115a6000612726565b565b6001602052806000526040600020600091509050805461117b9061357f565b80601f01602080910402602001604051908101604052809291908181526020018280546111a79061357f565b80156111f45780601f106111c9576101008083540402835291602001916111f4565b820191906000526020600020905b8154815290600101906020018083116111d757829003601f168201915b505050505081565b816006600082815260200190815260200160002060090160009054906101000a900460ff16611257576040517fd42039af00000000000000000000000000000000000000000000000000000000815260040160405180910390fd5b60006006600085815260200190815260200160002060405180610140016040529081600082015481526020016001820160009054906101000a900473ffffffffffffffffffffffffffffffffffffffff1673ffffffffffffffffffffffffffffffffffffffff1673ffffffffffffffffffffffffffffffffffffffff1681526020016002820160009054906101000a900473ffffffffffffffffffffffffffffffffffffffff1673ffffffffffffffffffffffffffffffffffffffff1673ffffffffffffffffffffffffffffffffffffffff1681526020016003820154815260200160048201548152602001600582015481526020016006820160009054906101000a900473ffffffffffffffffffffffffffffffffffffffff1673ffffffffffffffffffffffffffffffffffffffff1673ffffffffffffffffffffffffffffffffffffffff16815260200160078201548152602001600882015481526020016009820160009054906101000a900460ff1615151515815250509050806020015173ffffffffffffffffffffffffffffffffffffffff163373ffffffffffffffffffffffffffffffffffffffff161415801561143f57503073ffffffffffffffffffffffffffffffffffffffff163373ffffffffffffffffffffffffffffffffffffffff1614155b15611476576040517f62af6ccb00000000000000000000000000000000000000000000000000000000815260040160405180910390fd5b6000611481856121f6565b9050808411156114bd576040517f6752d5ad00000000000000000000000000000000000000000000000000000000815260040160405180910390fd5b600084116114f7576040517f43ad20fc00000000000000000000000000000000000000000000000000000000815260040160405180910390fd5b60008261010001510361160557600660008681526020019081526020016000206000808201600090556001820160006101000a81549073ffffffffffffffffffffffffffffffffffffffff02191690556002820160006101000a81549073ffffffffffffffffffffffffffffffffffffffff02191690556003820160009055600482016000905560058201600090556006820160006101000a81549073ffffffffffffffffffffffffffffffffffffffff0219169055600782016000905560088201600090556009820160006101000a81549060ff021916905550506040517f7364ba1700000000000000000000000000000000000000000000000000000000815260040160405180910390fd5b83826060015161161591906136ee565b60066000878152602001908152602001600020600801819055508160c0015173ffffffffffffffffffffffffffffffffffffffff1663a9059cbb8360200151866040518363ffffffff1660e01b815260040161167292919061395e565b6020604051808303816000875af1158015611691573d6000803e3d6000fd5b505050506040513d601f19601f820116820180604052508101906116b59190613816565b507f36c3ab437e6a424ed25dc4bfdeb62706aa06558660fab2dab229d2555adaf89c858360200151866040516116ed93929190613987565b60405180910390a15050505050565b6002602052816000526040600020602052806000526040600020600091509150505481565b60008060009054906101000a900473ffffffffffffffffffffffffffffffffffffffff16905090565b6000806000806000806000806000896006600082815260200190815260200160002060090160009054906101000a900460ff166117b3576040517fd42039af00000000000000000000000000000000000000000000000000000000815260040160405180910390fd5b600660008c815260200190815260200160002060010160009054906101000a900473ffffffffffffffffffffffffffffffffffffffff169950600660008c815260200190815260200160002060020160009054906101000a900473ffffffffffffffffffffffffffffffffffffffff169850600660008c8152602001908152602001600020600301549750600660008c8152602001908152602001600020600401549650600660008c8152602001908152602001600020600501549550600660008c815260200190815260200160002060060160009054906101000a900473ffffffffffffffffffffffffffffffffffffffff169450600660008c8152602001908152602001600020600701549350600660008c8152602001908152602001600020600801549250600660008c815260200190815260200160002060090160009054906101000a900460ff169150509193959799909294969850565b600360009054906101000a900473ffffffffffffffffffffffffffffffffffffffff1681565b60606000600160008461ffff1661ffff168152602001908152602001600020805461195f9061357f565b80601f016020809104026020016040519081016040528092919081815260200182805461198b9061357f565b80156119d85780601f106119ad576101008083540402835291602001916119d8565b820191906000526020600020905b8154815290600101906020018083116119bb57829003601f168201915b505050505090506000815103611a23576040517f08c379a0000000000000000000000000000000000000000000000000000000008152600401611a1a90613a0a565b60405180910390fd5b611a46600060148351611a3691906136ee565b836127ea9092919063ffffffff16565b915050919050565b611a5661263a565b818130604051602001611a6b93929190613a72565b604051602081830303815290604052600160008561ffff1661ffff1681526020019081526020016000209081611aa19190613c3e565b507f8c0400cfe2d1199b1a725c78960bcc2a344d869b80590d0f2bd005db15a572ce838383604051611ad59392919061389a565b60405180910390a1505050565b7f000000000000000000000000000000000000000000000000000000000000000081565b611b0e61263a565b80600360006101000a81548173ffffffffffffffffffffffffffffffffffffffff021916908373ffffffffffffffffffffffffffffffffffffffff1602179055507f5db758e995a17ec1ad84bdef7e8c3293a0bd6179bcce400dff5d4c3d87db726b81604051611b7e91906131d5565b60405180910390a150565b611b9161263a565b7f000000000000000000000000000000000000000000000000000000000000000073ffffffffffffffffffffffffffffffffffffffff1663cbed8b9c86868686866040518663ffffffff1660e01b8152600401611bf2959493929190613d10565b600060405180830381600087803b158015611c0c57600080fd5b505af1158015611c20573d6000803e3d6000fd5b505050505050505050565b6000806006600084815260200190815260200160002060405180610140016040529081600082015481526020016001820160009054906101000a900473ffffffffffffffffffffffffffffffffffffffff1673ffffffffffffffffffffffffffffffffffffffff1673ffffffffffffffffffffffffffffffffffffffff1681526020016002820160009054906101000a900473ffffffffffffffffffffffffffffffffffffffff1673ffffffffffffffffffffffffffffffffffffffff1673ffffffffffffffffffffffffffffffffffffffff1681526020016003820154815260200160048201548152602001600582015481526020016006820160009054906101000a900473ffffffffffffffffffffffffffffffffffffffff1673ffffffffffffffffffffffffffffffffffffffff1673ffffffffffffffffffffffffffffffffffffffff16815260200160078201548152602001600882015481526020016009820160009054906101000a900460ff161515151581525050905080608001514211611dbd576000915050611df9565b8060a00151421015611de157806080015142611dd991906136ee565b915050611df9565b80608001518160a00151611df591906136ee565b9150505b919050565b6000600460008861ffff1661ffff1681526020019081526020016000208686604051611e2b9291906135e0565b908152602001604051809103902060008567ffffffffffffffff1667ffffffffffffffff1681526020019081526020016000205490506000801b8103611ea6576040517f08c379a0000000000000000000000000000000000000000000000000000000008152600401611e9d90613dd0565b60405180910390fd5b808383604051611eb79291906135e0565b604051809103902014611eff576040517f08c379a0000000000000000000000000000000000000000000000000000000008152600401611ef690613e62565b60405180910390fd5b6000801b600460008961ffff1661ffff1681526020019081526020016000208787604051611f2e9291906135e0565b908152602001604051809103902060008667ffffffffffffffff1667ffffffffffffffff16815260200190815260200160002081905550611ff98787878080601f016020809104026020016040519081016040528093929190818152602001838380828437600081840152601f19601f820116905080830192505050505050508686868080601f016020809104026020016040519081016040528093929190818152602001838380828437600081840152601f19601f820116905080830192505050505050506126b8565b7fc264d91f3adc5588250e1551f547752ca0cfa8f6b530d243b9f9f4cab10ea8e58787878785604051612030959493929190613e91565b60405180910390a150505050505050565b61204961263a565b6000811161208c576040517f08c379a000000000000000000000000000000000000000000000000000000000815260040161208390613f2b565b60405180910390fd5b80600260008561ffff1661ffff16815260200190815260200160002060008461ffff1661ffff168152602001908152602001600020819055507f9d5c7c0b934da8fefa9c7760c98383778a12dfbfc0c3b3106518f43fb9508ac08383836040516120f893929190613f4b565b60405180910390a1505050565b6000816040516020016121189190612e10565b604051602081830303815290604052905061214783823360006040518060200160405280600081525034612908565b7f49c140b92f7071fd58962ee8f69e637c41fec6470af0b2d3d329c0a7002d5ad9836040516121769190613852565b60405180910390a1505050565b61218b61263a565b8181600160008661ffff1661ffff16815260200190815260200160002091826121b5929190613f8d565b507ffa41487ad5d6728f0b19276fa1eddc16558578f5109fc39d2dc33c3230470dab8383836040516121e99392919061389a565b60405180910390a1505050565b6000806006600084815260200190815260200160002060405180610140016040529081600082015481526020016001820160009054906101000a900473ffffffffffffffffffffffffffffffffffffffff1673ffffffffffffffffffffffffffffffffffffffff1673ffffffffffffffffffffffffffffffffffffffff1681526020016002820160009054906101000a900473ffffffffffffffffffffffffffffffffffffffff1673ffffffffffffffffffffffffffffffffffffffff1673ffffffffffffffffffffffffffffffffffffffff1681526020016003820154815260200160048201548152602001600582015481526020016006820160009054906101000a900473ffffffffffffffffffffffffffffffffffffffff1673ffffffffffffffffffffffffffffffffffffffff1673ffffffffffffffffffffffffffffffffffffffff16815260200160078201548152602001600882015481526020016009820160009054906101000a900460ff1615151515815250509050600061237e84611c2b565b9050808260e00151612390919061405d565b92505050919050565b6123a161263a565b600073ffffffffffffffffffffffffffffffffffffffff168173ffffffffffffffffffffffffffffffffffffffff1603612410576040517f08c379a000000000000000000000000000000000000000000000000000000000815260040161240790614111565b60405180910390fd5b61241981612726565b50565b60607f000000000000000000000000000000000000000000000000000000000000000073ffffffffffffffffffffffffffffffffffffffff1663f5ecbdbc868630866040518563ffffffff1660e01b815260040161247d9493929190614131565b600060405180830381865afa15801561249a573d6000803e3d6000fd5b505050506040513d6000823e3d601f19601f820116820180604052508101906124c391906141e6565b9050949350505050565b600033905090565b6000806125815a60966366ad5c8a60e01b898989896040516024016124fd949392919061422f565b604051602081830303815290604052907bffffffffffffffffffffffffffffffffffffffffffffffffffffffff19166020820180517bffffffffffffffffffffffffffffffffffffffffffffffffffffffff83818316178352505050503073ffffffffffffffffffffffffffffffffffffffff16612a93909392919063ffffffff16565b9150915081612632578280519060200120600460008861ffff1661ffff168152602001908152602001600020866040516125bb91906142b3565b908152602001604051809103902060008667ffffffffffffffff1667ffffffffffffffff168152602001908152602001600020819055507fe183f33de2837795525b4792ca4cd60535bd77c53b7e7030060bfcf5734d6b0c86868686856040516126299594939291906142ca565b60405180910390a15b505050505050565b6126426124cd565b73ffffffffffffffffffffffffffffffffffffffff16612660611721565b73ffffffffffffffffffffffffffffffffffffffff16146126b6576040517f08c379a00000000000000000000000000000000000000000000000000000000081526004016126ad9061437e565b60405180910390fd5b565b6000818060200190518101906126ce91906143b3565b905060006126db826121f6565b90506126e782826111fc565b7fb10278cb5bbfff6eb667756c618a9af66912713089f06fc19b723d116bcd4604826040516127169190612e10565b60405180910390a1505050505050565b60008060009054906101000a900473ffffffffffffffffffffffffffffffffffffffff169050816000806101000a81548173ffffffffffffffffffffffffffffffffffffffff021916908373ffffffffffffffffffffffffffffffffffffffff1602179055508173ffffffffffffffffffffffffffffffffffffffff168173ffffffffffffffffffffffffffffffffffffffff167f8be0079c531659141344cd1fd0a4f28419497f9722a3daafe3b4186f6b6457e060405160405180910390a35050565b606081601f836127fa91906136ba565b101561283b576040517f08c379a00000000000000000000000000000000000000000000000000000000081526004016128329061442c565b60405180910390fd5b818361284791906136ba565b8451101561288a576040517f08c379a000000000000000000000000000000000000000000000000000000000815260040161288190614498565b60405180910390fd5b60608215600081146128ab57604051915060008252602082016040526128fc565b6040519150601f8416801560200281840101858101878315602002848b0101015b818310156128e957805183526020830192506020810190506128cc565b50868552601f19601f8301166040525050505b50809150509392505050565b6000600160008861ffff1661ffff16815260200190815260200160002080546129309061357f565b80601f016020809104026020016040519081016040528092919081815260200182805461295c9061357f565b80156129a95780601f1061297e576101008083540402835291602001916129a9565b820191906000526020600020905b81548152906001019060200180831161298c57829003601f168201915b5050505050905060008151036129f4576040517f08c379a00000000000000000000000000000000000000000000000000000000081526004016129eb9061452a565b60405180910390fd5b7f000000000000000000000000000000000000000000000000000000000000000073ffffffffffffffffffffffffffffffffffffffff1663c58031008389848a8a8a8a6040518863ffffffff1660e01b8152600401612a589695949392919061456b565b6000604051808303818588803b158015612a7157600080fd5b505af1158015612a85573d6000803e3d6000fd5b505050505050505050505050565b6000606060008060008661ffff1667ffffffffffffffff811115612aba57612ab9612ed7565b5b6040519080825280601f01601f191660200182016040528015612aec5781602001600182028036833780820191505090505b50905060008087516020890160008d8df191503d925086831115612b0e578692505b828152826000602083013e81819450945050505094509492505050565b6000604051905090565b600080fd5b600080fd5b600061ffff82169050919050565b612b5681612b3f565b8114612b6157600080fd5b50565b600081359050612b7381612b4d565b92915050565b600080fd5b600080fd5b600080fd5b60008083601f840112612b9e57612b9d612b79565b5b8235905067ffffffffffffffff811115612bbb57612bba612b7e565b5b602083019150836001820283011115612bd757612bd6612b83565b5b9250929050565b600067ffffffffffffffff82169050919050565b612bfb81612bde565b8114612c0657600080fd5b50565b600081359050612c1881612bf2565b92915050565b60008060008060008060808789031215612c3b57612c3a612b35565b5b6000612c4989828a01612b64565b965050602087013567ffffffffffffffff811115612c6a57612c69612b3a565b5b612c7689828a01612b88565b95509550506040612c8989828a01612c09565b935050606087013567ffffffffffffffff811115612caa57612ca9612b3a565b5b612cb689828a01612b88565b92509250509295509295509295565b600073ffffffffffffffffffffffffffffffffffffffff82169050919050565b6000612cf082612cc5565b9050919050565b612d0081612ce5565b8114612d0b57600080fd5b50565b600081359050612d1d81612cf7565b92915050565b6000819050919050565b612d3681612d23565b8114612d4157600080fd5b50565b600081359050612d5381612d2d565b92915050565b600080600080600060a08688031215612d7557612d74612b35565b5b6000612d8388828901612d0e565b9550506020612d9488828901612d0e565b9450506040612da588828901612d44565b9350506060612db688828901612d44565b9250506080612dc788828901612d44565b9150509295509295909350565b600060208284031215612dea57612de9612b35565b5b6000612df884828501612b64565b91505092915050565b612e0a81612d23565b82525050565b6000602082019050612e256000830184612e01565b92915050565b600080600060408486031215612e4457612e43612b35565b5b6000612e5286828701612b64565b935050602084013567ffffffffffffffff811115612e7357612e72612b3a565b5b612e7f86828701612b88565b92509250509250925092565b60008115159050919050565b612ea081612e8b565b82525050565b6000602082019050612ebb6000830184612e97565b92915050565b600080fd5b6000601f19601f8301169050919050565b7f4e487b7100000000000000000000000000000000000000000000000000000000600052604160045260246000fd5b612f0f82612ec6565b810181811067ffffffffffffffff82111715612f2e57612f2d612ed7565b5b80604052505050565b6000612f41612b2b565b9050612f4d8282612f06565b919050565b600067ffffffffffffffff821115612f6d57612f6c612ed7565b5b612f7682612ec6565b9050602081019050919050565b82818337600083830152505050565b6000612fa5612fa084612f52565b612f37565b905082815260208101848484011115612fc157612fc0612ec1565b5b612fcc848285612f83565b509392505050565b600082601f830112612fe957612fe8612b79565b5b8135612ff9848260208601612f92565b91505092915050565b60008060006060848603121561301b5761301a612b35565b5b600061302986828701612b64565b935050602084013567ffffffffffffffff81111561304a57613049612b3a565b5b61305686828701612fd4565b925050604061306786828701612c09565b9150509250925092565b6000819050919050565b61308481613071565b82525050565b600060208201905061309f600083018461307b565b92915050565b600081519050919050565b600082825260208201905092915050565b60005b838110156130df5780820151818401526020810190506130c4565b60008484015250505050565b60006130f6826130a5565b61310081856130b0565b93506131108185602086016130c1565b61311981612ec6565b840191505092915050565b6000602082019050818103600083015261313e81846130eb565b905092915050565b6000806040838503121561315d5761315c612b35565b5b600061316b85828601612d44565b925050602061317c85828601612d44565b9150509250929050565b6000806040838503121561319d5761319c612b35565b5b60006131ab85828601612b64565b92505060206131bc85828601612b64565b9150509250929050565b6131cf81612ce5565b82525050565b60006020820190506131ea60008301846131c6565b92915050565b60006020828403121561320657613205612b35565b5b600061321484828501612d44565b91505092915050565b600061012082019050613233600083018c6131c6565b613240602083018b6131c6565b61324d604083018a612e01565b61325a6060830189612e01565b6132676080830188612e01565b61327460a08301876131c6565b61328160c0830186612e01565b61328e60e0830185612e01565b61329c610100830184612e97565b9a9950505050505050505050565b6000819050919050565b60006132cf6132ca6132c584612cc5565b6132aa565b612cc5565b9050919050565b60006132e1826132b4565b9050919050565b60006132f3826132d6565b9050919050565b613303816132e8565b82525050565b600060208201905061331e60008301846132fa565b92915050565b60006020828403121561333a57613339612b35565b5b600061334884828501612d0e565b91505092915050565b60008060008060006080868803121561336d5761336c612b35565b5b600061337b88828901612b64565b955050602061338c88828901612b64565b945050604061339d88828901612d44565b935050606086013567ffffffffffffffff8111156133be576133bd612b3a565b5b6133ca88828901612b88565b92509250509295509295909350565b6000806000606084860312156133f2576133f1612b35565b5b600061340086828701612b64565b935050602061341186828701612b64565b925050604061342286828701612d44565b9150509250925092565b6000806040838503121561344357613442612b35565b5b600061345185828601612b64565b925050602061346285828601612d44565b9150509250929050565b6000806000806080858703121561348657613485612b35565b5b600061349487828801612b64565b94505060206134a587828801612b64565b93505060406134b687828801612d0e565b92505060606134c787828801612d44565b91505092959194509250565b600082825260208201905092915050565b7f4c7a4170703a20696e76616c696420656e64706f696e742063616c6c65720000600082015250565b600061351a601e836134d3565b9150613525826134e4565b602082019050919050565b600060208201905081810360008301526135498161350d565b9050919050565b7f4e487b7100000000000000000000000000000000000000000000000000000000600052602260045260246000fd5b6000600282049050600182168061359757607f821691505b6020821081036135aa576135a9613550565b5b50919050565b600081905092915050565b60006135c783856135b0565b93506135d4838584612f83565b82840190509392505050565b60006135ed8284866135bb565b91508190509392505050565b7f4c7a4170703a20696e76616c696420736f757263652073656e64696e6720636f60008201527f6e74726163740000000000000000000000000000000000000000000000000000602082015250565b60006136556026836134d3565b9150613660826135f9565b604082019050919050565b6000602082019050818103600083015261368481613648565b9050919050565b7f4e487b7100000000000000000000000000000000000000000000000000000000600052601160045260246000fd5b60006136c582612d23565b91506136d083612d23565b92508282019050808211156136e8576136e761368b565b5b92915050565b60006136f982612d23565b915061370483612d23565b925082820390508181111561371c5761371b61368b565b5b92915050565b7f4e487b7100000000000000000000000000000000000000000000000000000000600052601260045260246000fd5b600061375c82612d23565b915061376783612d23565b92508261377757613776613722565b5b828206905092915050565b600061378d82612d23565b915061379883612d23565b9250826137a8576137a7613722565b5b828204905092915050565b60006060820190506137c860008301866131c6565b6137d560208301856131c6565b6137e26040830184612e01565b949350505050565b6137f381612e8b565b81146137fe57600080fd5b50565b600081519050613810816137ea565b92915050565b60006020828403121561382c5761382b612b35565b5b600061383a84828501613801565b91505092915050565b61384c81612b3f565b82525050565b60006020820190506138676000830184613843565b92915050565b600061387983856130b0565b9350613886838584612f83565b61388f83612ec6565b840190509392505050565b60006040820190506138af6000830186613843565b81810360208301526138c281848661386d565b9050949350505050565b7f4e6f6e626c6f636b696e674c7a4170703a2063616c6c6572206d75737420626560008201527f204c7a4170700000000000000000000000000000000000000000000000000000602082015250565b60006139286026836134d3565b9150613933826138cc565b604082019050919050565b600060208201905081810360008301526139578161391b565b9050919050565b600060408201905061397360008301856131c6565b6139806020830184612e01565b9392505050565b600060608201905061399c6000830186612e01565b6139a960208301856131c6565b6139b66040830184612e01565b949350505050565b7f4c7a4170703a206e6f20747275737465642070617468207265636f7264000000600082015250565b60006139f4601d836134d3565b91506139ff826139be565b602082019050919050565b60006020820190508181036000830152613a23816139e7565b9050919050565b60008160601b9050919050565b6000613a4282613a2a565b9050919050565b6000613a5482613a37565b9050919050565b613a6c613a6782612ce5565b613a49565b82525050565b6000613a7f8285876135bb565b9150613a8b8284613a5b565b601482019150819050949350505050565b60008190508160005260206000209050919050565b60006020601f8301049050919050565b600082821b905092915050565b600060088302613afe7fffffffffffffffffffffffffffffffffffffffffffffffffffffffffffffffff82613ac1565b613b088683613ac1565b95508019841693508086168417925050509392505050565b6000613b3b613b36613b3184612d23565b6132aa565b612d23565b9050919050565b6000819050919050565b613b5583613b20565b613b69613b6182613b42565b848454613ace565b825550505050565b600090565b613b7e613b71565b613b89818484613b4c565b505050565b5b81811015613bad57613ba2600082613b76565b600181019050613b8f565b5050565b601f821115613bf257613bc381613a9c565b613bcc84613ab1565b81016020851015613bdb578190505b613bef613be785613ab1565b830182613b8e565b50505b505050565b600082821c905092915050565b6000613c1560001984600802613bf7565b1980831691505092915050565b6000613c2e8383613c04565b9150826002028217905092915050565b613c47826130a5565b67ffffffffffffffff811115613c6057613c5f612ed7565b5b613c6a825461357f565b613c75828285613bb1565b600060209050601f831160018114613ca85760008415613c96578287015190505b613ca08582613c22565b865550613d08565b601f198416613cb686613a9c565b60005b82811015613cde57848901518255600182019150602085019450602081019050613cb9565b86831015613cfb5784890151613cf7601f891682613c04565b8355505b6001600288020188555050505b505050505050565b6000608082019050613d256000830188613843565b613d326020830187613843565b613d3f6040830186612e01565b8181036060830152613d5281848661386d565b90509695505050505050565b7f4e6f6e626c6f636b696e674c7a4170703a206e6f2073746f726564206d65737360008201527f6167650000000000000000000000000000000000000000000000000000000000602082015250565b6000613dba6023836134d3565b9150613dc582613d5e565b604082019050919050565b60006020820190508181036000830152613de981613dad565b9050919050565b7f4e6f6e626c6f636b696e674c7a4170703a20696e76616c6964207061796c6f6160008201527f6400000000000000000000000000000000000000000000000000000000000000602082015250565b6000613e4c6021836134d3565b9150613e5782613df0565b604082019050919050565b60006020820190508181036000830152613e7b81613e3f565b9050919050565b613e8b81612bde565b82525050565b6000608082019050613ea66000830188613843565b8181036020830152613eb981868861386d565b9050613ec86040830185613e82565b613ed5606083018461307b565b9695505050505050565b7f4c7a4170703a20696e76616c6964206d696e4761730000000000000000000000600082015250565b6000613f156015836134d3565b9150613f2082613edf565b602082019050919050565b60006020820190508181036000830152613f4481613f08565b9050919050565b6000606082019050613f606000830186613843565b613f6d6020830185613843565b613f7a6040830184612e01565b949350505050565b600082905092915050565b613f978383613f82565b67ffffffffffffffff811115613fb057613faf612ed7565b5b613fba825461357f565b613fc5828285613bb1565b6000601f831160018114613ff45760008415613fe2578287013590505b613fec8582613c22565b865550614054565b601f19841661400286613a9c565b60005b8281101561402a57848901358255600182019150602085019450602081019050614005565b868310156140475784890135614043601f891682613c04565b8355505b6001600288020188555050505b50505050505050565b600061406882612d23565b915061407383612d23565b925082820261408181612d23565b915082820484148315176140985761409761368b565b5b5092915050565b7f4f776e61626c653a206e6577206f776e657220697320746865207a65726f206160008201527f6464726573730000000000000000000000000000000000000000000000000000602082015250565b60006140fb6026836134d3565b91506141068261409f565b604082019050919050565b6000602082019050818103600083015261412a816140ee565b9050919050565b60006080820190506141466000830187613843565b6141536020830186613843565b61416060408301856131c6565b61416d6060830184612e01565b95945050505050565b600061418961418484612f52565b612f37565b9050828152602081018484840111156141a5576141a4612ec1565b5b6141b08482856130c1565b509392505050565b600082601f8301126141cd576141cc612b79565b5b81516141dd848260208601614176565b91505092915050565b6000602082840312156141fc576141fb612b35565b5b600082015167ffffffffffffffff81111561421a57614219612b3a565b5b614226848285016141b8565b91505092915050565b60006080820190506142446000830187613843565b818103602083015261425681866130eb565b90506142656040830185613e82565b818103606083015261427781846130eb565b905095945050505050565b600061428d826130a5565b61429781856135b0565b93506142a78185602086016130c1565b80840191505092915050565b60006142bf8284614282565b915081905092915050565b600060a0820190506142df6000830188613843565b81810360208301526142f181876130eb565b90506143006040830186613e82565b818103606083015261431281856130eb565b9050818103608083015261432681846130eb565b90509695505050505050565b7f4f776e61626c653a2063616c6c6572206973206e6f7420746865206f776e6572600082015250565b60006143686020836134d3565b915061437382614332565b602082019050919050565b600060208201905081810360008301526143978161435b565b9050919050565b6000815190506143ad81612d2d565b92915050565b6000602082840312156143c9576143c8612b35565b5b60006143d78482850161439e565b91505092915050565b7f736c6963655f6f766572666c6f77000000000000000000000000000000000000600082015250565b6000614416600e836134d3565b9150614421826143e0565b602082019050919050565b6000602082019050818103600083015261444581614409565b9050919050565b7f736c6963655f6f75744f66426f756e6473000000000000000000000000000000600082015250565b60006144826011836134d3565b915061448d8261444c565b602082019050919050565b600060208201905081810360008301526144b181614475565b9050919050565b7f4c7a4170703a2064657374696e6174696f6e20636861696e206973206e6f742060008201527f61207472757374656420736f7572636500000000000000000000000000000000602082015250565b60006145146030836134d3565b915061451f826144b8565b604082019050919050565b6000602082019050818103600083015261454381614507565b9050919050565b600061455582612cc5565b9050919050565b6145658161454a565b82525050565b600060c0820190506145806000830189613843565b818103602083015261459281886130eb565b905081810360408301526145a681876130eb565b90506145b5606083018661455c565b6145c260808301856131c6565b81810360a08301526145d481846130eb565b905097965050505050505056fea2646970667358221220fea2dfcf70a36e3ed6a172ad0fb8fc65f06151a5d9bab96d6a5f268e4d9b8e7a64736f6c63430008110033",
  "devdoc": {
    "kind": "dev",
    "methods": {
      "owner()": {
        "details": "Returns the address of the current owner."
      },
      "renounceOwnership()": {
        "details": "Leaves the contract without owner. It will not be possible to call `onlyOwner` functions anymore. Can only be called by the current owner. NOTE: Renouncing ownership will leave the contract without an owner, thereby removing any functionality that is only available to the owner."
      },
      "transferOwnership(address)": {
        "details": "Transfers ownership of the contract to a new account (`newOwner`). Can only be called by the current owner."
      }
    },
    "version": 1
  },
  "userdoc": {
    "kind": "user",
    "methods": {},
    "version": 1
  },
  "storageLayout": {
    "storage": [
      {
        "astId": 7,
        "contract": "contracts/Vester.sol:Vester",
        "label": "_owner",
        "offset": 0,
        "slot": "0",
        "type": "t_address"
      },
      {
        "astId": 973,
        "contract": "contracts/Vester.sol:Vester",
        "label": "trustedRemoteLookup",
        "offset": 0,
        "slot": "1",
        "type": "t_mapping(t_uint16,t_bytes_storage)"
      },
      {
        "astId": 979,
        "contract": "contracts/Vester.sol:Vester",
        "label": "minDstGasLookup",
        "offset": 0,
        "slot": "2",
        "type": "t_mapping(t_uint16,t_mapping(t_uint16,t_uint256))"
      },
      {
        "astId": 981,
        "contract": "contracts/Vester.sol:Vester",
        "label": "precrime",
        "offset": 0,
        "slot": "3",
        "type": "t_address"
      },
      {
        "astId": 1466,
        "contract": "contracts/Vester.sol:Vester",
        "label": "failedMessages",
        "offset": 0,
        "slot": "4",
        "type": "t_mapping(t_uint16,t_mapping(t_bytes_memory_ptr,t_mapping(t_uint64,t_bytes32)))"
      },
      {
        "astId": 243,
        "contract": "contracts/Vester.sol:Vester",
        "label": "nextStreamId",
        "offset": 0,
        "slot": "5",
        "type": "t_uint256"
      },
      {
        "astId": 269,
        "contract": "contracts/Vester.sol:Vester",
        "label": "streams",
        "offset": 0,
        "slot": "6",
        "type": "t_mapping(t_uint256,t_struct(Stream)264_storage)"
      }
    ],
    "types": {
      "t_address": {
        "encoding": "inplace",
        "label": "address",
        "numberOfBytes": "20"
      },
      "t_bool": {
        "encoding": "inplace",
        "label": "bool",
        "numberOfBytes": "1"
      },
      "t_bytes32": {
        "encoding": "inplace",
        "label": "bytes32",
        "numberOfBytes": "32"
      },
      "t_bytes_memory_ptr": {
        "encoding": "bytes",
        "label": "bytes",
        "numberOfBytes": "32"
      },
      "t_bytes_storage": {
        "encoding": "bytes",
        "label": "bytes",
        "numberOfBytes": "32"
      },
      "t_mapping(t_bytes_memory_ptr,t_mapping(t_uint64,t_bytes32))": {
        "encoding": "mapping",
        "key": "t_bytes_memory_ptr",
        "label": "mapping(bytes => mapping(uint64 => bytes32))",
        "numberOfBytes": "32",
        "value": "t_mapping(t_uint64,t_bytes32)"
      },
      "t_mapping(t_uint16,t_bytes_storage)": {
        "encoding": "mapping",
        "key": "t_uint16",
        "label": "mapping(uint16 => bytes)",
        "numberOfBytes": "32",
        "value": "t_bytes_storage"
      },
      "t_mapping(t_uint16,t_mapping(t_bytes_memory_ptr,t_mapping(t_uint64,t_bytes32)))": {
        "encoding": "mapping",
        "key": "t_uint16",
        "label": "mapping(uint16 => mapping(bytes => mapping(uint64 => bytes32)))",
        "numberOfBytes": "32",
        "value": "t_mapping(t_bytes_memory_ptr,t_mapping(t_uint64,t_bytes32))"
      },
      "t_mapping(t_uint16,t_mapping(t_uint16,t_uint256))": {
        "encoding": "mapping",
        "key": "t_uint16",
        "label": "mapping(uint16 => mapping(uint16 => uint256))",
        "numberOfBytes": "32",
        "value": "t_mapping(t_uint16,t_uint256)"
      },
      "t_mapping(t_uint16,t_uint256)": {
        "encoding": "mapping",
        "key": "t_uint16",
        "label": "mapping(uint16 => uint256)",
        "numberOfBytes": "32",
        "value": "t_uint256"
      },
      "t_mapping(t_uint256,t_struct(Stream)264_storage)": {
        "encoding": "mapping",
        "key": "t_uint256",
        "label": "mapping(uint256 => struct Vester.Stream)",
        "numberOfBytes": "32",
        "value": "t_struct(Stream)264_storage"
      },
      "t_mapping(t_uint64,t_bytes32)": {
        "encoding": "mapping",
        "key": "t_uint64",
        "label": "mapping(uint64 => bytes32)",
        "numberOfBytes": "32",
        "value": "t_bytes32"
      },
      "t_struct(Stream)264_storage": {
        "encoding": "inplace",
        "label": "struct Vester.Stream",
        "members": [
          {
            "astId": 245,
            "contract": "contracts/Vester.sol:Vester",
            "label": "streamId",
            "offset": 0,
            "slot": "0",
            "type": "t_uint256"
          },
          {
            "astId": 247,
            "contract": "contracts/Vester.sol:Vester",
            "label": "user",
            "offset": 0,
            "slot": "1",
            "type": "t_address"
          },
          {
            "astId": 249,
            "contract": "contracts/Vester.sol:Vester",
            "label": "sender",
            "offset": 0,
            "slot": "2",
            "type": "t_address"
          },
          {
            "astId": 251,
            "contract": "contracts/Vester.sol:Vester",
            "label": "depositAmount",
            "offset": 0,
            "slot": "3",
            "type": "t_uint256"
          },
          {
            "astId": 253,
            "contract": "contracts/Vester.sol:Vester",
            "label": "startTime",
            "offset": 0,
            "slot": "4",
            "type": "t_uint256"
          },
          {
            "astId": 255,
            "contract": "contracts/Vester.sol:Vester",
            "label": "endTime",
            "offset": 0,
            "slot": "5",
            "type": "t_uint256"
          },
          {
            "astId": 257,
            "contract": "contracts/Vester.sol:Vester",
            "label": "tokenAddress",
            "offset": 0,
            "slot": "6",
            "type": "t_address"
          },
          {
            "astId": 259,
            "contract": "contracts/Vester.sol:Vester",
            "label": "ratesPerSecond",
            "offset": 0,
            "slot": "7",
            "type": "t_uint256"
          },
          {
            "astId": 261,
            "contract": "contracts/Vester.sol:Vester",
            "label": "balance",
            "offset": 0,
            "slot": "8",
            "type": "t_uint256"
          },
          {
            "astId": 263,
            "contract": "contracts/Vester.sol:Vester",
            "label": "active",
            "offset": 0,
            "slot": "9",
            "type": "t_bool"
          }
        ],
        "numberOfBytes": "320"
      },
      "t_uint16": {
        "encoding": "inplace",
        "label": "uint16",
        "numberOfBytes": "2"
      },
      "t_uint256": {
        "encoding": "inplace",
        "label": "uint256",
        "numberOfBytes": "32"
      },
      "t_uint64": {
        "encoding": "inplace",
        "label": "uint64",
        "numberOfBytes": "8"
      }
    }
  }
}